:020000040000fa
:080000000002040000000000f2
:020000040000fa
:04000800ee02000004
:020000040000fa
:04000c00ee02000000
:020000040000fa
:04001000ee020000fc
:020000040000fa
:04001400ee020000f8
:020000040000fa
:04001800ee020000f4
:020000040000fa
:04001c00ee020000f0
:020000040000fa
:04002000ee020000ec
:020000040000fa
:04002400ee020000e8
:020000040000fa
:04002800ee020000e4
:020000040000fa
:04002c00ee020000e0
:020000040000fa
:04003000ee020000dc
:020000040000fa
:04003400ee020000d8
:020000040000fa
:04003800ee020000d4
:020000040000fa
:04003c00ee020000d0
:020000040000fa
:04004000ee020000cc
:020000040000fa
:04004400ee020000c8
:020000040000fa
:04004800c8020000ea
:020000040000fa
:04004c00ee020000c0
:020000040000fa
:04005000ee020000bc
:020000040000fa
:04005400ee020000b8
:020000040000fa
:04005800ee020000b4
:020000040000fa
:04005c00ee020000b0
:020000040000fa
:04006000ee020000ac
:020000040000fa
:04006400ee020000a8
:020000040000fa
:04006800ee020000a4
:020000040000fa
:04006c00ee020000a0
:020000040000fa
:04007000ee0200009c
:020000040000fa
:04007400ee02000098
:020000040000fa
:04007800ee02000094
:020000040000fa
:04007c00ee02000090
:020000040000fa
:04008000ee0200008c
:020000040000fa
:04008400ee02000088
:020000040000fa
:04008800ee02000084
:020000040000fa
:04008c00ee02000080
:020000040000fa
:04009000ee0200007c
:020000040000fa
:04009400ee02000078
:020000040000fa
:04009800ee02000074
:020000040000fa
:04009c00ee02000070
:020000040000fa
:0400a000ee0200006c
:020000040000fa
:0400a400ee02000068
:020000040000fa
:0400a800ee02000064
:020000040000fa
:0400ac00ee02000060
:020000040000fa
:0400b000ee0200005c
:020000040000fa
:0400b400ee02000058
:020000040000fa
:0400b800ee02000054
:020000040000fa
:0400bc00ee02000050
:020000040000fa
:0400c000ee0200004c
:020000040000fa
:0400c400ee02000048
:020000040000fa
:0400c800ee02000044
:020000040000fa
:0400cc00ee02000040
:020000040000fa
:0400d000ee0200003c
:020000040000fa
:0400d400ee02000038
:020000040000fa
:0400d800ee02000034
:020000040000fa
:0400dc00ee02000030
:020000040000fa
:0400e000ee0200002c
:020000040000fa
:0400e400ee02000028
:020000040000fa
:0400e800ee02000024
:020000040000fa
:0400ec00ee02000020
:020000040000fa
:0400f000ee0200001c
:020000040000fa
:0400f400ee02000018
:020000040000fa
:0400f800ee02000014
:020000040000fa
:0400fc00ee02000010
:020000040000fa
:04010000ee0200000b
:020000040000fa
:04010400ee02000007
:020000040000fa
:04010800ee02000003
:020000040000fa
:04010c00ee020000ff
:020000040000fa
:04011000ee020000fb
:020000040000fa
:04011400ee020000f7
:020000040000fa
:04011800ee020000f3
:020000040000fa
:04011c00ee020000ef
:020000040000fa
:04012000ee020000eb
:020000040000fa
:04012400ee020000e7
:020000040000fa
:04012800ee020000e3
:020000040000fa
:04012c00ee020000df
:020000040000fa
:04013000ee020000db
:020000040000fa
:04013400ee020000d7
:020000040000fa
:04013800ee020000d3
:020000040000fa
:04013c00ee020000cf
:020000040000fa
:04014000ee020000cb
:020000040000fa
:04014400ee020000c7
:020000040000fa
:04014800ee020000c3
:020000040000fa
:04014c00ee020000bf
:020000040000fa
:04015000ee020000bb
:020000040000fa
:04020800ee02000002
:020000040000fa
:04020c00ee020000fe
:020000040000fa
:04021000ee020000fa
:020000040000fa
:04021400ee020000f6
:020000040000fa
:04021800ee020000f2
:020000040000fa
:04021c00ee020000ee
:020000040000fa
:04022000ee020000ea
:020000040000fa
:04022400ee020000e6
:020000040000fa
:04022800ee020000e2
:020000040000fa
:04022c00ee020000de
:020000040000fa
:04023000ee020000da
:020000040000fa
:04023400ee020000d6
:020000040000fa
:04023800ee020000d2
:020000040000fa
:04023c00ee020000ce
:020000040000fa
:04024000ee020000ca
:020000040000fa
:04024400ee020000c6
:020000040000fa
:04024800c8020000e8
:020000040000fa
:04024c00ee020000be
:020000040000fa
:04025000ee020000ba
:020000040000fa
:04025400ee020000b6
:020000040000fa
:04025800ee020000b2
:020000040000fa
:04025c00ee020000ae
:020000040000fa
:04026000ee020000aa
:020000040000fa
:04026400ee020000a6
:020000040000fa
:04026800ee020000a2
:020000040000fa
:04026c00ee0200009e
:020000040000fa
:04027000ee0200009a
:020000040000fa
:04027400ee02000096
:020000040000fa
:04027800ee02000092
:020000040000fa
:04027c00ee0200008e
:020000040000fa
:04028000ee0200008a
:020000040000fa
:04028400ee02000086
:020000040000fa
:04028800ee02000082
:020000040000fa
:04028c00ee0200007e
:020000040000fa
:04029000ee0200007a
:020000040000fa
:04029400ee02000076
:020000040000fa
:04029800ee02000072
:020000040000fa
:04029c00ee0200006e
:020000040000fa
:0402a000ee0200006a
:020000040000fa
:0402a400ee02000066
:020000040000fa
:0402a800ee02000062
:020000040000fa
:0402ac00ee0200005e
:020000040000fa
:0402b000ee0200005a
:020000040000fa
:0402b400ee02000056
:020000040000fa
:0402b800ee02000052
:020000040000fa
:0402bc00ee0200004e
:020000040000fa
:0402c000ee0200004a
:020000040000fa
:0402c400ee02000046
:020000040000fa
:0402c800ee02000042
:020000040000fa
:0402cc00ee0200003e
:020000040000fa
:0402d000ee0200003a
:020000040000fa
:0402d400ee02000036
:020000040000fa
:0402d800ee02000032
:020000040000fa
:0402dc00ee0200002e
:020000040000fa
:0402e000ee0200002a
:020000040000fa
:0402e400ee02000026
:020000040000fa
:0402e800ee02000022
:020000040000fa
:0402ec00ee0200001e
:020000040000fa
:0402f000ee0200001a
:020000040000fa
:0402f400ee02000016
:020000040000fa
:0402f800ee02000012
:020000040000fa
:0402fc00ee0200000e
:020000040000fa
:04030000ee02000009
:020000040000fa
:04030400ee02000005
:020000040000fa
:04030800ee02000001
:020000040000fa
:04030c00ee020000fd
:020000040000fa
:04031000ee020000f9
:020000040000fa
:04031400ee020000f5
:020000040000fa
:04031800ee020000f1
:020000040000fa
:04031c00ee020000ed
:020000040000fa
:04032000ee020000e9
:020000040000fa
:04032400ee020000e5
:020000040000fa
:04032800ee020000e1
:020000040000fa
:04032c00ee020000dd
:020000040000fa
:04033000ee020000d9
:020000040000fa
:04033400ee020000d5
:020000040000fa
:04033800ee020000d1
:020000040000fa
:04033c00ee020000cd
:020000040000fa
:04034000ee020000c9
:020000040000fa
:04034400ee020000c5
:020000040000fa
:04034800ee020000c1
:020000040000fa
:04034c00ee020000bd
:020000040000fa
:04035000ee020000b9
:020000040000fa
:100400000fa020000edf20000e0188000000000079
:10041000000020000000e000020032000001200087
:100420002002880014000700b30007000000e0006d
:1004300003003a00c08820000100200002003700bd
:100440000000200001002000810f70000100320038
:1004500014000700000020000000e000020032004d
:1004600000000200000000002e0b0200000000004f
:100470000040da000000fe004440a9000000200017
:100480000000e0000300320000002000a00188000e
:100490004440a800000006008a1f78008b1f7800e7
:1004a0000000060091018800800478000000eb0045
:1004b0001a003700e284440032a0b4009905ba0063
:1004c000e284440032a0b4009906ba00e2844400f9
:1004d00032a0b4000006eb00476fde00fd07b2005b
:1004e000636ce10003003a00ebff07000000eb0043
:1004f0000a003700606ce10004003a00005deb0088
:100500008b05e900fdff3e00040037006168e10053
:10051000010032000086eb000b00070019c7ba008b
:100520001905ba000e04e00003003a000a00e000da
:10053000e0ff3a0000000600fe07b2009e018800be
:100540008a047800f5ff3700395dba008b05e900b1
:100550000c003200295dba008b05e900080032006a
:100560000c00e00003003a00e284440032a0b40032
:10057000f5ff370019ddba008b05e900faff3a00f4
:100580008904e800e184440032a0b40000000600c1
:100590003600f800809fbe00829fbe00849fbe0090
:1005a000869fbe000000fa000000eb00e004070098
:1005b0000041880010c0b30008e8b7008500a9001a
:1005c0000080fa004f03be004f02be004f01be0084
:1005d0004f00be003600f900004006000040da007f
:1005e0000000fe00800090000101e900c0009000c2
:1005f000000020000280090080187800000006003a
:10060000889fbe008a9fbe008c9fbe008e1f780010
:100610004400f800080f2000280288003400f80089
:100620004600f8004800f8004a00f8004c00f800c6
:100630004e00f8008a0a2c003a0288002304900039
:100640005802880013049000480288005305900067
:100650007a028800430590006a028800811f7800b2
:100660000f0778003305900007f02f000a38e100eb
:1006700004003200270280004700b30027028800f0
:10068000aa018800630590000302900063025200f3
:100690000000e9000080080007000000320d78002b
:1006a000000000004618c300048009004618c4007a
:1006b0004218c4001201c4003100cd00ea019800c4
:1006c0008e0778004f0078004e00f9004c00f900ca
:1006d0004a00f9004800f9004600f9003400f9002a
:1006e0004400f9004f0778004f06be004f05be00da
:1006f0004f04be0000000600000005000001be001f
:100700001b0007000470a70003f0a10003f8a3007a
:1007100013003a006509b1001000320009003500ed
:100720006928e100020035000100280000000500f2
:1007300000004000818048008502e900fcff3a008b
:1007400000000600f88f4200050035008100d1004e
:100750000080d3008502e800fcff3a00000006009c
:100760008000eb00000005006011b80015023700a2
:10077000c70ade00f107b200f50fb2000800320030
:10078000e1cf4200020032000170a0002400050009
:10079000810f7000010032000408050044000500cc
:1007a000810f700002003a00140005008502e90084
:1007b0000000400081c04800fcff3b000170a00029
:1007c000240005006022b800060220000000d000ce
:1007d0008180d2000482d2008582d2000000a00075
:1007e0000202520083825a000300310002024200da
:1007f00083824a000000a1000603e900f3ff3a00eb
:100800000000060007f82700078361000638e100b2
:1008100004003a00f7072000878361008703710016
:1008200001003a0003f0a200889fbe008a9fbe002c
:100830008c9fbe00470ade000480a100c71ade00bc
:100840000580a100070028000785600087856100fa
:10085000f70f20000720e1009e0032000728e1008a
:100860009c003200010678000400e000b400320071
:10087000f7072000878060000170a0000500e000fd
:10088000c0003200f7072000878161000370a000dc
:10089000050652000f003a000b50e1000b00320039
:1008a0000308e10002003a000200e1007e0032008d
:1008b0000204500083845800040031000001fd0050
:1008c0008101fd008402fd008a05fd006044b8003e
:1008d000210037000520e10005003d000001fd007a
:1008e0008101fd008402fd008a05fd00050652001d
:1008f0007a60e100050035000170a1004722dd00ab
:10090000848070008a807000630037006044b80003
:10091000ef02660007ff2f00070666000500e000f3
:1009200006003400f08312008714dd000511de009c
:10093000071bdd00060171008519de007060e10013
:10094000050035000904780082047800030178006e
:100950008001eb00700656000b50e10003003a00e6
:100960000200400083804800040037006004140047
:10097000e0841c0002005800838058000188a30016
:10098000060032008100d1000080d3008984d300aa
:100990000884d3000402e800270037000178a30090
:1009a00025003a000100e000030032008186cf00fc
:1009b000698656000a0037008c0020000000e00025
:1009c00004003a0009007800880478000004eb0075
:1009d000700252008086cf000d0646000c06e9002a
:1009e0007060e100060035008000780009007800a2
:1009f000880478000004eb00700656007002520074
:100a00000c00e0000c0034008c08dd00f003160040
:100a10000703de00868070000c00dd00074bde005f
:100a2000060070008c4cdd000743de0086847400f5
:100a30000c44dd000c0252006120e1002000350072
:100a4000610160000700280087816400f7ff27002c
:100a500087836400070374000300e000060032008f
:100a600082037300040032000000e800e0804800c8
:100a70000188a3000e003a00f70f20000720e100d4
:100a80004a003d000170a1004722dd008100720094
:100a90008a8070000000be004f06be004f05be00f9
:100aa0004f04be00000006006000b800faff3700e7
:100ab0008100d1000080d3000402e800eeff37007f
:100ac0000401780089017400c20007008a80700068
:100ad000f1ff370018010700070278000001fd0050
:100ae0008101fd0014010700870278008503720070
:100af0000778a300040032000001fd008101fd0021
:100b000027010700e4ff3700850362000768a300a0
:100b1000080032000b50e10003003200f0ff2f000c
:100b2000f1ff2700dcff37000001fd008101fd001f
:100b3000d9ff37000468a300d7ff3200faff37005f
:100b4000f8ff2700888360000b003a000000e000f7
:100b500009003a00830364008283730002003200bc
:100b60000200be00ccff37000b50e100ceff3a0080
:100b70000200be00c8ff370014002000810064009e
:100b80003eff3700f8ff27008883610004003a0029
:100b90000200e00002003a008c007800beff37003f
:100ba000150020008301640039ff370001f8270099
:100bb0000000200081007500b7ff37000383680044
:100bc0000700280007036300470ade000480a10035
:100bd000c71ade000580a100f70f20000720e10002
:100be000420032000728e10040003200889fbe002a
:100bf0008a9fbe008c1f7800f107b200f307b20095
:100c00000400e000640032000170a0000500e00074
:100c1000680032000370a00085054200eb07b100b8
:100c20000204b8000302b8008484440060854a00ce
:100c3000020ab800848444000a854a00030ab80006
:100c400004054500040033000804d0008984d20064
:100c50000a85d2008b05e9006158e1003d003500ae
:100c60000210200009016100030820008981610051
:100c7000f70720008783640008867300c84cde00f5
:100c8000c853dd00878474004855de000300e0008f
:100c90000600320082037600040032008904e80076
:100ca00060054d000a88a3000c003a00f70f2000f1
:100cb0000758e10044003d000a70a100c75ddd0057
:100cc0000a8575008a007300090078004f067800d5
:100cd0004f05be004f04be00000006000a05d1000b
:100ce0008984d3008b05e800f0ff3700881f780067
:100cf0000604780090000700070278000001fd005c
:100d00008101fd008c0007008702780085037200d6
:100d10000778a300050032000001fd008101fd00fd
:100d20009f0007004f047800000006008503720052
:100d30000748a30003003200f0ff2f00f1ff270057
:100d4000f8ff37000000200001f8270088807000bd
:100d5000f4ff3700880178004848dd008081710089
:100d60004848de00c850dd0001007000c850de00b9
:100d7000060478000b0178001600070088807000d8
:100d8000d2ff37000500e000050032001700200008
:100d90003a0007009dff370081037000f9ff3a0019
:100da000860078004f0678004f05be004f04be0055
:100db0000000050083037100f9ff320027002000c6
:100dc0002e00070094ff370001f82700868070008e
:100dd000f4ff37000100e00026003200610111003d
:100de0007810e10023003c006022b8007010e100a0
:100df0000400350080027800010078008000eb00dc
:100e0000700151000200e00009003400700311007d
:100e1000062add00822ade008603dd00878272005a
:100e20000200de00860bdd00070070008208de0095
:100e300084817100f4ff27000482620084817100c4
:100e400004002800848262006102600005f0a600b0
:100e50000000060004827100070032000000e80074
:100e6000e0804800000006000002be006000b800fc
:100e7000efff37006000b80000000600889fbe004a
:100e80000004eb006138e10016003a000100e000c8
:100e900008003a00c800de004800dd00880020009d
:100ea0000100e00003003a00c800de004800dd0059
:100eb000680444008184cf00e984540006003400b3
:100ec0008908dd00f08314008703de00878070004e
:100ed0000900dd0009044400610214004f04be0053
:100ee000000006000300e00008003a00c811de0020
:100ef0004811dd00880020000300e00003003a00f4
:100f0000c811de004811dd00680444008384cf006e
:100f1000e9845400060034008919dd00f0831400d0
:100f20008713de00878171000911dd000904440088
:100f3000e1021400e9ff37002700200001f0a700bc
:100f400017002000470bde00f60fb200040032004d
:100f50000643e8000a0032004702b3000000060022
:100f600001037800f607b2000603700002003a00a1
:100f70000703b300000006008702b300000006006c
:100f800001037800f607b200060370000200320089
:100f90000770a000000006000760a0000000060027
:100fa0000478a300040032000578a3000300320097
:100fb0000168a30001003a000200be000160a00029
:100fc00000000600889fbe008a9fbe00008270005d
:100fd0000402710004827100260032000004be0089
:100fe0000200be006011b8006b09200095022000cd
:100ff0000182cf000a0039000541b1000082cf0014
:10100000070039000541b1000982cf000400390012
:101010000541b1000882cf00010039000541b1004f
:1010200005425200120032000a003b00828171002a
:10103000610164008100d1000080d3008984d30065
:101040000884d3008b05e8000442e800f7ff3a006b
:10105000070037000804440089844c000000480061
:10106000818048008b05e9000442e900f9ff3a005d
:10107000030007004f05be004f04be00000006003d
:1010800081002000618055000b003d000b00200016
:1010900061fe2f000100e1001d003400828171001b
:1010a000610164008904d1000884d3000000e800d5
:1010b000faff3a0071002000610064000300700034
:1010c000020060000900320061044400e0844c002a
:1010d0000988a500050032008b05e8006808e100da
:1010e00002003a008904d1000884d300f20f2000e6
:1010f0000258e10005003d00c75ddd00f907b200c0
:101100008980750008007800000006000bf82700b1
:081110008b00780000000500cf
:020000040000fa
:101118000008000050000000000000005008000017
:101128000e000000020000003300000009650900fd
:1011380000ff00000e650e00000e00000009000010
:1011480000010000020000000000ff00fffcff009b
:101158000a001e0000000000baffc300ff54000090
:10116800b200000000e1fe0024ff10000118020098
:101178000000ef00fcb4fd00cd0296000500000061
:10118800eaf64d00f8c90b0098263200339826007d
:10119800c90b4d00f8eaf6000000960005cd0200e4
:1011a800b4fdef00fc000000180210000124ff004d
:1011b800e1fe000000b200005400c300ffbaff00c7
:1011c80000001e00000a0000fcffff00ff000000f6
:1011d8000000000000000000000000000000000007
:1011e80000000000000000000000000000000000f7
:1011f80000000000000000000000000000000000e7
:1012080000000000000000000000000000000000d6
:1012180000000000000000000000000000000000c6
:1012280000000000000000000000000000000000b6
:1012380000000000000000000000000000000000a6
:101248000000000000000000000000000000000096
:101258000000000000000000000000000000000086
:101268000000000000000000000000000000000076
:101278000000000000000000000000000000000066
:101288000000000000000000000000000000000056
:101298000000000000000000000000000000000046
:1012a800000e000000010000020000000000000025
:1012b8000000000000000000000000000000000026
:1012c8000000000000000000000000000000000016
:1012d8000000000000000000000000000000000006
:1012e80000000000000000000000000000000000f6
:1012f80000000000000000000000000000000000e6
:1013080000000000000000000000000000000000d5
:1013180000000000000000000000000000000000c5
:1013280000000000000000000000000000000000b5
:1013380000000000000000000000000000000000a5
:101348000000000000000000000000000000000095
:101358000000000000000000000000000000000085
:101368000000000000000000000000000000000075
:101378000000000000000000000000000000000065
:101388000000000000000000000000000000000055
:101398000000000000000000000000000000000045
:1013a8000000000000000000000000000000000035
:1013b8000000000000000000000000000000000025
:1013c8000000000000000000000000000000000015
:1013d8000000000000000000000000000000000005
:1013e80000000000000000000000000000000000f5
:1013f80000000000000000000000000000000000e5
:081408000000000000000000dc
:020000040000fa
:101410000a00fa00889fbe00e800470080087800b4
:1014200090952d0001402300008fbe00680047000a
:10143000100078008000eb000001be008038210021
:1014400001002000dffc0700c7fc07000004be000d
:101450000268290083a924001e00be00d7fd0700f2
:101460000001be000800be00e6fc070002002000ec
:1014700003002400e3fc0700640147000089be006c
:10148000640047001000be009cfc0700004078008c
:101490000080fb002010880007e2a8004f04be0077
:1014a0000080fa00000006000000fa000602a80012
:1014b0000000000030108000610060000000e000cb
:1014c000fcff3a000080fa00000006000000fa006d
:1014d0000622a800000000003010800062006000ba
:1014e0000000e000fcff3a000080fa000000060067
:1014f0000000fa000642a800000000003010800042
:10150000640060000000e000fcff3a000080fa0088
:10151000000006000200fa00004f78000e00e8000c
:10152000014878009e80fb00e00f20008080600072
:101530000e00e800104078000080fb0061006000b1
:1015400001007000101088000000000041108000b1
:1015500000002400008060000000e000fbff3a0073
:101560000080fa00000006000200fa00004f780038
:101570001e80fb0010108800000000004110800059
:1015800000002400008060000000e000fbff3a0043
:101590000080fa00000006000400fa00000f780046
:1015a0000e80e800014878000682a9000662a800c3
:1015b0000e80e800104078000004e00011003a00be
:1015c0000000000030108000680060000000e000b3
:1015d000fcff3a0000108000004078009e00780078
:1015e0008048780006a2a9000682a800000000003a
:1015f00030108000700060000000e000fcff3a0046
:10160000140037000e80e80010407800e14f5000d1
:1016100010003a00000000003010800068006000f8
:101620000000e000fcff3a0000108000004078005d
:101630009e0078008048780006a2a8000682a800d4
:101640000000000030108000700060000000e0002a
:10165000fcff3a000080fa00000006000600fa00d5
:101660000e81e80000097800640047000108780056
:101670004e28ef00090037007042800080004000d3
:10168000a0802000008040008000eb00010878006e
:10169000704280000000e8007042880070428000c4
:1016a000ea0f5000f4ff34004e28ef000900370025
:1016b00070428000c200dd002082200000814000d6
:1016c0006000b8000089be00704280000000e800a1
:1016d0007042880070428000ea0f5000f4ff34002e
:1016e00010002000450007002e00070040062000e3
:1016f00047ff07000000eb00000f7800008020008b
:10170000000f780000852000b6fb070001003700bd
:101710000000000008c8bf000004e000fcff320029
:101720000082200003852000000178000180200055
:1017300010002000b2fb07001e00e80010407800f7
:101740000000fb00204088001e0078001040780058
:101750000000fb00304088001041800021418000e3
:10176000e6fb070000007800104088004eff0700ed
:101770008040eb0000ccb30066ff070020408000f3
:10178000004078006f40600077ff07003040800025
:101790000040780074ff070055ff07000868ef005d
:1017a000dcff37000000fa0013e1a9001221a900b4
:1017b00012c1a90091088000f0fc2f000080600099
:1017c0000040a000900888000a21ef00400d23008f
:1017d000700888009500a8008500a90041058000d8
:1017e00080ff2f00008060005000b300400588009b
:1017f00013e1a8000080fa00000006000200fa00d1
:10180000000f78006119800000fc2f00008060004c
:1018100060198800001680003000b30000168800b0
:1018200040168000f000b300401688001e007800cb
:101830000000e00003003200e10f50001d00320004
:101840003900370021e3a9002143a90001198000d4
:10185000f0cf2f000080600000198800011980007f
:10186000f0f12f0000806000001988002023a900fb
:1018700011198000f0ff210000806000101988001d
:1018800011198000f0cf2f0000806000101988002f
:1018900025e3a90040c0b30024e3b70021e3a8007a
:1018a0004119800000fe2f00008060004019880070
:1018b0001d00370021e3a9002143a8000119800081
:1018c000f0cf2f000080600000198800011980000f
:1018d000f0f12f00008060000060a0000019880077
:1018e0002023a90011198000f0ff21000080600072
:1018f0001019880011198000f0cf2f0000806000bf
:101900001019880025e3a90040c0b30024e3b70004
:1019100021e3a8004119800000fe2f000080600034
:1019200040198800000000000080fa000000060056
:101930000200fa00000f78001e00780000407800d6
:101940007f4060000080fb007f0060004219800043
:1019500001fe2f0081006100010070004019880025
:101960000000000000198000610060000000e0003d
:10197000fcff3200001880000080fa000000060022
:020000040000fa
:0200000401f009
:04000000ffffff00ff
:020000040000fa
:0200000401f009
:04000800ffffff00f7
:020000040000fa
:0200000401f009
:04000c00820000006e
:020000040000fa
:0200000401f009
:04001000a500000047
:020000040000fa
:0200000401f009
:040014005f00000089
:020000040000fa
:0200000401f009
:04001800f7000000ed
:020000040000fa
:0200000401f009
:04001c00dfff000002
:00000001FF
