:020000040000fa
:080000000002040000000000f2
:020000040000fa
:040008001e030000d3
:020000040000fa
:04000c00600300008d
:020000040000fa
:04001000a003000049
:020000040000fa
:040014003e030000a7
:020000040000fa
:040018008003000061
:020000040000fa
:04001c004e0500008d
:020000040000fa
:04002000c003000019
:020000040000fa
:040024004e05000085
:020000040000fa
:040028004e05000081
:020000040000fa
:04002c004e0500007d
:020000040000fa
:040030004e05000079
:020000040000fa
:040034004e05000075
:020000040000fa
:040038004e05000071
:020000040000fa
:04003c004e0500006d
:020000040000fa
:040040004e05000069
:020000040000fa
:040044004e05000065
:020000040000fa
:040048004e05000061
:020000040000fa
:04004c004e0500005d
:020000040000fa
:040050004e05000059
:020000040000fa
:040054004c04000058
:020000040000fa
:04005800ec030000b5
:020000040000fa
:04005c004e0500004d
:020000040000fa
:040060004e05000049
:020000040000fa
:040064004e05000045
:020000040000fa
:040068004e05000041
:020000040000fa
:04006c004e0500003d
:020000040000fa
:040070004e05000039
:020000040000fa
:040074004e05000035
:020000040000fa
:040078004e05000031
:020000040000fa
:04007c004e0500002d
:020000040000fa
:040080004e05000029
:020000040000fa
:040084004e05000025
:020000040000fa
:040088004e05000021
:020000040000fa
:04008c004e0500001d
:020000040000fa
:040090004e05000019
:020000040000fa
:040094004e05000015
:020000040000fa
:040098004e05000011
:020000040000fa
:04009c004e0500000d
:020000040000fa
:0400a0004e05000009
:020000040000fa
:0400a4004e05000005
:020000040000fa
:0400a8004e05000001
:020000040000fa
:0400ac004e050000fd
:020000040000fa
:0400b0004e050000f9
:020000040000fa
:0400b4004e050000f5
:020000040000fa
:0400b8004e050000f1
:020000040000fa
:0400bc004e050000ed
:020000040000fa
:0400c0004e050000e9
:020000040000fa
:0400c4004e050000e5
:020000040000fa
:0400c8004e050000e1
:020000040000fa
:0400cc004e050000dd
:020000040000fa
:0400d0004e050000d9
:020000040000fa
:0400d4004e050000d5
:020000040000fa
:0400d8004e050000d1
:020000040000fa
:0400dc004e050000cd
:020000040000fa
:0400e0004e050000c9
:020000040000fa
:0400e4004e050000c5
:020000040000fa
:0400e8004e050000c1
:020000040000fa
:0400ec00b804000054
:020000040000fa
:0400f0004e050000b9
:020000040000fa
:0400f4004e050000b5
:020000040000fa
:0400f8004e050000b1
:020000040000fa
:0400fc004e050000ad
:020000040000fa
:040100004e050000a8
:020000040000fa
:040104004e050000a4
:020000040000fa
:040108004e050000a0
:020000040000fa
:04010c004e0500009c
:020000040000fa
:040110004e05000098
:020000040000fa
:040114004e05000094
:020000040000fa
:040118004e05000090
:020000040000fa
:04011c004e0500008c
:020000040000fa
:040120004e05000088
:020000040000fa
:040124004e05000084
:020000040000fa
:040128004e05000080
:020000040000fa
:04012c004e0500007c
:020000040000fa
:040130004e05000078
:020000040000fa
:040134004e05000074
:020000040000fa
:040138004e05000070
:020000040000fa
:04013c004e0500006c
:020000040000fa
:040140004e05000068
:020000040000fa
:040144004e05000064
:020000040000fa
:040148004e05000060
:020000040000fa
:04014c004e0500005c
:020000040000fa
:040150004e05000058
:020000040000fa
:040154004e05000054
:020000040000fa
:040158004e05000050
:020000040000fa
:04015c004e0500004c
:020000040000fa
:040160004e05000048
:020000040000fa
:040164004e05000044
:020000040000fa
:040168004e05000040
:020000040000fa
:04016c004e0500003c
:020000040000fa
:040170004e05000038
:020000040000fa
:040174004e05000034
:020000040000fa
:040178004e05000030
:020000040000fa
:04017c004e0500002c
:020000040000fa
:040180004e05000028
:020000040000fa
:040184004e05000024
:020000040000fa
:040188004e05000020
:020000040000fa
:04018c004e0500001c
:020000040000fa
:040190004e05000018
:020000040000fa
:040194004e05000014
:020000040000fa
:040198004e05000010
:020000040000fa
:04019c004e0500000c
:020000040000fa
:0401a0004e05000008
:020000040000fa
:0401a4004e05000004
:020000040000fa
:0401a8004e05000000
:020000040000fa
:0401ac004e050000fc
:020000040000fa
:0401b0004e050000f8
:020000040000fa
:0401b4004e050000f4
:020000040000fa
:0401b8004e050000f0
:020000040000fa
:0401bc004e050000ec
:020000040000fa
:0401c0004e050000e8
:020000040000fa
:0401c4004e050000e4
:020000040000fa
:0401c8004e050000e0
:020000040000fa
:0401cc004e050000dc
:020000040000fa
:0401d0004e050000d8
:020000040000fa
:0401d400d60400004d
:020000040000fa
:0401d800120500000c
:020000040000fa
:0401dc004e050000cc
:020000040000fa
:0401e0004e050000c8
:020000040000fa
:0401e4004e050000c4
:020000040000fa
:0401e8004e050000c0
:020000040000fa
:0401ec004e050000bc
:020000040000fa
:0401f0004e050000b8
:020000040000fa
:0401f4004e050000b4
:020000040000fa
:0401f8004e050000b0
:020000040000fa
:0401fc004e050000ac
:020000040000fa
:040200004e050000a7
:020000040000fa
:040204004e050000a3
:020000040000fa
:040208004e0500009f
:020000040000fa
:04020c004e0500009b
:020000040000fa
:040210004e05000097
:020000040000fa
:040214004e05000093
:020000040000fa
:040218004e0500008f
:020000040000fa
:04021c004e0500008b
:020000040000fa
:040220004e05000087
:020000040000fa
:040224004e05000083
:020000040000fa
:040228004e0500007f
:020000040000fa
:04022c004e0500007b
:020000040000fa
:040230004e05000077
:020000040000fa
:040234004e05000073
:020000040000fa
:040238004e0500006f
:020000040000fa
:04023c004e0500006b
:020000040000fa
:040240004e05000067
:020000040000fa
:040244004e05000063
:020000040000fa
:040248004e0500005f
:020000040000fa
:04024c004e0500005b
:020000040000fa
:040250004e05000057
:020000040000fa
:040254004e05000053
:020000040000fa
:040258004e0500004f
:020000040000fa
:04025c004e0500004b
:020000040000fa
:040260004e05000047
:020000040000fa
:040264004e05000043
:020000040000fa
:040268004e0500003f
:020000040000fa
:04026c004e0500003b
:020000040000fa
:040270004e05000037
:020000040000fa
:040274004e05000033
:020000040000fa
:040278004e0500002f
:020000040000fa
:04027c004e0500002b
:020000040000fa
:040280004e05000027
:020000040000fa
:040284004e05000023
:020000040000fa
:040288004e0500001f
:020000040000fa
:04028c004e0500001b
:020000040000fa
:040290004e05000017
:020000040000fa
:040294004e05000013
:020000040000fa
:040298004e0500000f
:020000040000fa
:04029c004e0500000b
:020000040000fa
:0402a0004e05000007
:020000040000fa
:0402a4004e05000003
:020000040000fa
:0402a8004e050000ff
:020000040000fa
:0402ac004e050000fb
:020000040000fa
:0402b0004e050000f7
:020000040000fa
:0402b4004e050000f3
:020000040000fa
:0402b8004e050000ef
:020000040000fa
:0402bc004e050000eb
:020000040000fa
:0402c0004e050000e7
:020000040000fa
:0402c4004e050000e3
:020000040000fa
:0402c8004e050000df
:020000040000fa
:0402cc004e050000db
:020000040000fa
:0402d0004e050000d7
:020000040000fa
:0402d4004e050000d3
:020000040000fa
:0402d8004e050000cf
:020000040000fa
:0402dc004e050000cb
:020000040000fa
:0402e0004e050000c7
:020000040000fa
:0402e4004e050000c3
:020000040000fa
:0402e8004e050000bf
:020000040000fa
:0402ec004e050000bb
:020000040000fa
:0402f0004e050000b7
:020000040000fa
:0402f4004e050000b3
:020000040000fa
:0402f8004e050000af
:020000040000fa
:0402fc004e050000ab
:020000040000fa
:040300004e050000a6
:020000040000fa
:040304004e050000a2
:020000040000fa
:040308004e0500009e
:020000040000fa
:04030c004e0500009a
:020000040000fa
:040310004e05000096
:020000040000fa
:040314004e05000092
:020000040000fa
:040318004e0500008e
:020000040000fa
:04031c00ce0400000b
:020000040000fa
:040320004e05000086
:020000040000fa
:040324004e05000082
:020000040000fa
:10040000cf0a21000eff22000e018800000000002c
:10041000000020000000e000020032000001200087
:100420002002880014000700de0107000000e00041
:1004300003003a0060aa21000100200002003700fa
:100440000000200001002000810f70000100320038
:100450000f000700000020000000e0000200320052
:100460000000020000000000601a0200000000000e
:100470000040da000000fe00e00020000000e00084
:1004800002003200002020009001880000000600d9
:10049000a1028800800478000000eb001f003700f4
:1004a000e284440054a0b4009905ba00e2844400f8
:1004b00054a0b4009906ba00e284440054a0b400e9
:1004c0000006eb00476fde00fd07b200ae018800ba
:1004d000636ce10003003a000ad801000000eb0061
:1004e0000e003700606ce10008003a00004deb00a0
:1004f0000a05e800020039003420ec000af0a000f0
:100500008b05e900f9ff3e00040037006168e10057
:10051000010032000086eb000b00070019c7ba008b
:100520001905ba000e04e00003003a000a00e000da
:10053000dbff3a0000000600fe07b200ae028800b2
:100540008a047800f5ff37000cd0a300e20f4d00bd
:100550001c003b0089027800354dba000a05e8000e
:10056000020039003420ec000af0a0008b05e900fd
:100570000f003200254dba000a05e80002003900dc
:100580003420ec000af0a0008b05e90008003200de
:100590000c00e0000600320015cdba000a05e800a4
:1005a000020039003420ec000af0a0008b05e900bd
:1005b0008984e80054a0b4000b00e000e2ff3a0098
:1005c000000006009902ba00055d78008b05e9007d
:1005d000f7ff3200c82ade00055d78008b05e900d0
:1005e000f3ff32000c00e000f1ff320019ddba0029
:1005f000eeff3700000000000000000000000000d7
:1006000000000000000000000000000000000000ea
:1006100000000000000000000000000000000000da
:1006200000000000000000000000000000000000ca
:100630000000000000000000000000003600f8008c
:10064000809fbe00829fbe00849fbe00869fbe002a
:100650000000fa00c028a9000000eb009c0c070075
:100660000080fa004f03be004f02be004f01be00e3
:100670004f00be003600f900004006003600f800ca
:10068000809fbe00829fbe00849fbe00869fbe00ea
:100690000000fa00930c0700c048a90010002000d9
:1006a0008b0c07000080fa004f03be004f02be0013
:1006b0004f01be004f00be003600f90000400600aa
:1006c0003600f800809fbe00829fbe00849fbe005f
:1006d000869fbe000000fa00c068a900200020002c
:1006e0007b0c07000080fa004f03be004f02be00e3
:1006f0004f01be004f00be003600f900004006006a
:100700003600f800809fbe00829fbe00849fbe001e
:10071000869fbe000000fa00c088a90030002000bb
:100720006b0c07000080fa004f03be004f02be00b2
:100730004f01be004f00be003600f9000040060029
:100740003600f800809fbe00829fbe00849fbe00de
:10075000869fbe000000fa00c608a90070002000b5
:100760005b0c07000080fa004f03be004f02be0082
:100770004f01be004f00be003600f90000400600e9
:100780003600f800809fbe00829fbe00849fbe009e
:10079000869fbe000000fa00214680000010200065
:1007a000008060000000e00003003200c508a900de
:1007b000c0002000460c070020468000700060004a
:1007c0000000e00003003200c488a900a00020005f
:1007d0003f0c0700ffff37003600f800809fbe0087
:1007e000829fbe00849fbe00869fbe000000fa006c
:1007f000508080000000e000020032005080800045
:10080000000001003180800020808000808f500037
:1008100002003a002188a900180037000188a900c9
:100820001000370030808000904078008180fb000d
:10083000411288000000e80030808800318080008c
:10084000100a2100808f500002003a008009210028
:10085000308088003180800020808000808f5000b0
:1008600005003200f0118000700060000000e00020
:10087000ecff320001003700000000000080fa00a9
:100880004f03be004f02be004f01be004f00be002e
:100890003600f900004006003600f800809fbe00d8
:1008a000829fbe00849fbe00869fbe000000fa00ab
:1008b000608080000000e000020032006080800064
:1008c000000001000168a9001e00370001808000bf
:1008d000201280000040780080487800018080006d
:1008e000900a2100808f50000900320000808000b3
:1008f0000000e80011808000810f500004003200e9
:10090000008080000000e800008088000d003700b3
:1009100001808000900a2100808f500007003a007b
:1009200011808000100a2100808f500003003200e7
:10093000100a2100008088000200370010c0b300b8
:1009400008f0b700f0118000620060000000e000d5
:10095000deff32000080fa004f03be004f02be00ef
:100960004f01be004f00be003600f90000400600f7
:10097000801f78000000fa00e01180006200600033
:100980000000e000010032003c22a9000628a90076
:100990000080fa004f007800004006000000fa00d6
:1009a00017a8a9000080fa00004006003600f800f1
:1009b000809fbe00829fbe00849fbe00869fbe00b7
:1009c0003200f8003400f80010002000a001880078
:1009d0000020200000d0fe000200fa0061618000cb
:1009e000010f7800908080000000e00003003200da
:1009f000918080001e007800010001000d68a900b0
:100a00000080fa003400f9003200f9004f03be0004
:100a10004f02be004f01be004f00be003600f9007d
:100a2000004006003600f800809fbe00829fbe0096
:100a3000849fbe00869fbe003200f8003400f8009c
:100a400010002000a00188000020200000d0fe003f
:100a50000200fa0071618000010f7800a080800020
:100a60000000e00003003200a18080001e0078003a
:100a7000010001000d88a9000080fa003400f9008f
:100a80003200f9004f03be004f02be004f01be000e
:100a90004f00be003600f900004006000040da00ba
:100aa0000000fe00ec8747008e1f78006c8757001f
:100ab00044002000041f7800000f78006c87570066
:100ac00002afbe00e1bf9f006c80570045060700e3
:100ad0001e00be004f077800cf00b10000000600e6
:100ae000ec8747008e1f780011002000a1bf9f00f7
:100af0006c875700002f78006c8057003b0607007a
:100b00001e0078004f077800cf00b10000000600fb
:100b10000a00fa00e40147008009780066004700f7
:100b20000108780068004700020878000e80e8009d
:100b3000e6004700110878000000eb00000f780085
:100b40000f00370000000000b80707000004a200f3
:100b50000004e000fcff3a000e80e800100078007e
:100b6000104078008e80e800910078000101e800d4
:100b70008e80e800820878008c0707001e0fe800ce
:100b800068004700100078009e007800808f5000b9
:100b9000ecff390068004700100078000080fa0080
:100ba00000000600000005000000fa00cfb8970022
:100bb00068815700d080800010007800ed010700a8
:100bc0000080fa00000006000b0007006400070028
:100bd000160107003e0107009800370000000600dc
:100be0000002210000000600fdff0700f0808800e1
:100bf000e080880000000600ec874700889fbe0068
:100c00008a9fbe008c9fbe008e1f78000006780071
:100c100001047800180790002805900098067800d5
:100c2000cdb79f00b80590003202be002203be007f
:100c30000400be000601be004f18de006011b800bf
:100c40008000eb00d0b79f00e1b79f00f2b79f0094
:100c500083bf9f00800478000900e0000600320096
:100c60006000b8006011b80004025000858258008e
:100c700006035900878359000e00e000020035008a
:100c80000d10a100cdb79f000900e00005003a005b
:100c90004fb097000028a30002003a000038a300dc
:100ca000020032008a00e900010037008a00780063
:100cb000f8815700a2002000080078008900070092
:100cc0000900e00003003a00cfb097000128a3001c
:100cd000080032000000e90000814500b1c2b30005
:100ce0000900e00001003200d1c2b30001497800e0
:100cf000060037000138a300040032000000e900bc
:100d00008080450002c2b30082487800480190000c
:100d10000201e90000015100808045004fb29700b8
:100d20008a0178000c007800d20107009c00900036
:100d30000188a3000400320098009000810f500049
:100d400001003d00010078004f0778004f06be000b
:100d50004f05be004f04be00cf00b10000000600ea
:100d60000200fa00889fbe008a9fbe00000578003e
:100d7000010478000200780018019000a805900096
:100d800098007800b1bf9f00b80490000200e00016
:100d9000020035000110a100b1bf9f00ea81570099
:100da000820020008b0078003002be002003be00cd
:100db000080078004b0007003fb99700f000610081
:100dc000040032000000e9008080440002c3b30048
:100dd000824878003fb99700e800610004003200c3
:100de0000000e9008080440002c2b300824878001d
:100df000480190000201e900000151008080440098
:100e00003fba97008b0178000a007800990107002b
:100e10009a0090000188a30004003200980090001e
:100e2000810f500001003d00010078004f05be0019
:100e30004f04be000080fa0000000600ea87470069
:100e4000889fbe008a9fbe008e1f78000004780035
:100e5000030078007287570084e2260055c72600f9
:100e6000049fbe00c3962200030f78006c875700d2
:100e7000004feb0011059000a1049000910578004f
:100e80000200e00002003200020778000100370093
:100e9000728757000000e00002003a000e00780060
:100ea0000a0407000a00e000030035008a0f500022
:100eb000010036000a0078000b02780089017800f2
:100ec000000178008e0078000800780069010700b2
:100ed0004f0778004f05be004f04be00af00b100c1
:100ee00000000600f4874700889fbe008a9fbe006e
:100ef0008c9fbe008e1f78000605be000404be0055
:100f000081bf9f0082b79f00f3b79f00b0009000a1
:100f1000e1b79f001301780092b79f009006900000
:100f2000400690000c06e9000d00e00001003d00c5
:100f30001d002000efb197000c8041000048eb003d
:100f40001e0020001f0037000c06e9000fb09700bc
:100f5000cf80de006109b900a0b79f00b1b79f0044
:100f6000c2b79f00d3b79f000203be000002be00bd
:100f70000800be000a01be00c70507000007780090
:100f8000efb097000c80400003c3b3000348470054
:100f90008d06e9000fb897000000e90080bf9f00b0
:100fa0002fb29700bfb297004fb39700dfb39700ff
:100fb0000800be000a01be00b00507000205be0021
:100fc0000004be000c00e0000d003200e00f5400f1
:100fd000e08f5c00e00f5d00e08f5d00daff3a001b
:100fe0000d00e000d8ff3c008fb897000100e00042
:100ff000030034001fb197000218a300d2ff3a008b
:101000000e00e00002003a00ffb197001340a1007b
:101010000c0078004f0778004f06be004f05be0059
:101020004f04be004f01b100000006000200fa00ac
:10103000889fbe008a9fbe0080047800010478006b
:1010400002007800180190002805900098007800b0
:10105000b1bf9f00b80590000200e000020035001b
:101060000110a100b1bf9f00ea815700a20020003b
:101070008a0078003002be002003be00080078001d
:1010800098ff0700480190000201e90000015100ab
:10109000808045003fba97008a01780009007800f7
:1010a000f4000700990090000188a30004003200ba
:1010b00098009000810f500001003d000100780071
:1010c0004f05be004f04be000080fa00000006007d
:1010d000fa874700889fbe008a9fbe008c9fbe0093
:1010e0008e1f780080047800010478008205780063
:1010f000180190002805900018077800b8009000ab
:101100000200e000020035000e10a10001003700cf
:101110001200200070006700e0b79f000900320055
:101120003b02be002b03be00e00f5200e08f5a00ce
:10113000e00f5b00e08f5b00020032008a86e9006e
:10114000010037008a067800e8026700f5b79f00c3
:10115000010032008d06e9003b02be002b03be00f9
:10116000e4af9f00f5af9f0086b79f0097b79f0041
:10117000480690000c06e9000c8040000048eb0097
:10118000efb297007fb2970089037800810478005e
:10119000d8af9f00020478008bbf9f008a057800bb
:1011a000034578002b0037000c06e9006fab970071
:1011b0006f006300e90f500002003c000003b00024
:1011c000010037007005b0000a03fb001604b100ef
:1011d000f90f53000c003e00000378000650a000f9
:1011e0001606b100f90f530007003e00b4b79f0088
:1011f000a5b79f00c7b79f0083030700cfb3970031
:10120000afb297003fb297000c834400004b7800c8
:101210000804e9008d06e9006fa89700ffa8970071
:101220000fb197009fb19700460020008301d100c5
:101230000281d3008180d3000080d3000603e9003f
:10124000faff3a00e0af9f00f1af9f0082b79f0026
:1012500093b79f00e10f56000f0036006fa897006c
:10126000ffa897000fb197009fb19700e00f5000c3
:10127000e08f5800e00f5900e08f5900caff3a0094
:101280000800e000c8ff3c000d00e0000200340050
:101290000e18a300c4ff3a0089007800f4b79f003d
:1012a000870478005fac97008a4178000b057800ce
:1012b0008fbd97000500e000120032003b02be0027
:1012c0002b03be00e4af9f00f5af9f0086b79f00e1
:1012d00097b79f00e00f5200e08f5a00e00f5b00cd
:1012e000e08f5b00070032000c06e9000c80400034
:1012f000034878000c06e9000c80400002c3b300ec
:1013000002487800ffb297000500e00004003200b8
:101310000c06e9000c80400002c2b30002487800cd
:10132000480190000201e9000c0151008c8040004e
:101330000e0278008a017800090078004d0007004d
:10134000990090000188a3000400320098009000ea
:10135000810f500001003d00010078004f07780028
:101360004f06be004f05be004f04be00af01b100e6
:10137000000006000200fa00881f780000047800d0
:10138000e2bf9f006481570008007800ef0107006a
:10139000980090000148a300010032000080eb009b
:1013a0004f0478000080fa0000000600889fbe000d
:1013b0008a1f7800800478004900900002047800b9
:1013c000800f540001003600000478000801780006
:1013d0006a8544001a007800520207001a0044008f
:1013e000000d7800e8844400990c14000048eb00dc
:1013f0004f0578004f04be00000006001000780082
:10140000c3fd3700900190000388a3000100320063
:10141000e6ff37000348a30001003a00f7ff07008a
:1014200000000600889fbe008a1f780080047800b4
:101430004900900002047800800f5400010036003b
:1014400000047800080178006a8544001a007800da
:10145000340207001a004400000d7800e8844400bc
:10146000990c14000048eb004f0578004f04be00b3
:1014700000000600f2874700889fbe008a9fbe00da
:101480008c9fbe008e1f78008004780001057800d4
:1014900002047800830578006107620002003a00c8
:1014a0008b0f540008003900080178008a0078008a
:1014b00009007800d3ff07008b0f540002003900a9
:1014c000880578001e003700088655000c0178005a
:1014d000f00f56000100360002012000010220003a
:1014e0007e805700160207008c0678000500370042
:1014f00002012000fe80570009007800c1ff0700ac
:10150000f0865600ef8f5600f9ff3e004461de0082
:1015100000ff2f008091b9000c014100fe805700b0
:1015200009007800b7ff07000e00e00004003a0051
:10153000080178008a00780009007800b1ff0700f0
:101540000b0078004f0778004f06be004f05be0025
:101550004f04be002f01b10000000600000005008e
:101560000000050000000500000178000040eb00cd
:101570008080fb00818040002308210081814100a0
:10158000134278000404e00004003a00300821000f
:1015900081004000114078000000060092017800b0
:1015a000934f520005003a003008210081004000ae
:1015b000114078000309e800010037000040e8000e
:1015c000ea4f5000eaff360000000600f6874700a9
:1015d000889fbe008a9fbe008c9fbe008e1f780031
:1015e0008004780001047800830578000406780000
:1015f0000000eb00c0b79f008080eb00d1b79f00d8
:10160000e0b79f00f2b79f000008200080bf9f0056
:1016100098007800010078000005eb000100370019
:101620000a05e800304178000204e00003003200bf
:1016300053c2b300834f5100f9ff3a000a00e000a3
:10164000040032000a017800090078006dff0700ed
:10165000180c45001807780050c2b3009e4f1000c8
:1016600033013a000e07e8000e0c78001000370036
:10167000cfb097000100a0000b003700cfb097005b
:101680000110a00008003700cfb097000120a00093
:1016900005003700cfb097000130a00002003700ee
:1016a000cfb097000140a000c1b79f00000ce80038
:1016b0001800780090407800b2c2b30082cf50008a
:1016c000f1ff320007003c0002c2b30082cf50009d
:1016d000f0ff320032c2b30082cf500007003a0060
:1016e000efff3700d2c2b30082cf5000e0ff3200dc
:1016f00002c3b30082cf5000e0ff3200a2c2b300a9
:1017000082cf50000d003a00000ce8001c80e90078
:10171000000e780010007800e0b79f000000e000a5
:101720000f003d00cfb097000100a200c1b79f009d
:101730000000ea00e0b79f0009003700050207003b
:10174000e0b79f0001003700000ce80018007800a7
:101750009000fb000103b100e98f5000faff360052
:101760004fb097000008a300020032000010a10053
:10177000c0b79f0018007800e1c2b30090cf1000fe
:1017800016003a008000eb00d1b79f000000e8008f
:10179000000c7800a1c2b30090cf100006003a0000
:1017a000000ce8001c80e900000e780010007800b2
:1017b000d0b79f0009003700e6010700d0b79f00af
:1017c00001003700000ce800180078009000fb00d2
:1017d0000103b100e98f5000faff360008007800dd
:1017e00061ff070080467800180078001000fb00b9
:1017f000fe01070091062000810f500038003200e2
:1018000012003c0041062000810f500034003200dd
:101810000a003c0011062000810f50002000320019
:1018200031062000810f50009a0032005102200042
:10183000810f5000ae003a00a7003700710620006b
:10184000810f5000aa003c008200370001072000f1
:10185000810f50005c00320007003c00e1062000d0
:10186000810f500074003200f1062000810f5000fb
:101870009f003a003900370051072000810f5000c7
:101880002700320081072000810f50004200320003
:1018900031072000810f500095003a008500370085
:1018a0008d80fb000c01780000fe2f000f0040002f
:1018b000dc0107000000e0009c0032001800780006
:1018c000000ce8009041780002fe2f000f0141005b
:1018d000f88057000900780021ff07000e0037004c
:1018e0008d80fb008c0178001200200000fe2f008c
:1018f0000f004000ea0107000000e0008b0032000a
:10190000180ce80002fe2f000f014100f88057007c
:1019100009007800b8fc0700000545008400370086
:101920008d80fb008c0178000001eb0000fe2f0091
:101930000f004000da0107000000e0007b003200e9
:10194000180ce80002fe2f000f014100f88057003c
:1019500009007800b5fd0700efff37008d80fb0020
:101960008c0178000001eb0000fe2f000f0040000a
:10197000cb0107000000e0006c003200180ce8000a
:1019800002fe2f000f014100f88057000900780087
:10199000f3fc0700e0ff37008d80fb008c0178002e
:1019a0000001eb0000fe2f000f004000bc0107000b
:1019b0000000e0005d00320018007800000ce80034
:1019c00090417800160037008c0178000001eb0090
:1019d000010f200000fe2f000f004000b0010700a3
:1019e0000000e00051003200180ce8000fb0970032
:1019f0009fb097002fb19700bfb19700e00f500044
:101a0000e08f5800e00f5900e08f590003003a00c2
:101a10008001eb00c20721004000370083c7b300fc
:101a200002fe2f000f014100f880570009007800e6
:101a3000a7fd0700b8ff37000b0145008d80fb00b4
:101a40008c01780000fe2f000f004000ed01070020
:101a5000360037008d80fb000c01780000fe2f005f
:101a60000f0040006f0107000000e0002f0032006f
:101a700018007800000ce8009041780002fe2f006a
:101a80000f014100f880570009007800b4fe0700fc
:101a9000a1ff370000c8b30080cf560023003a00f2
:101aa000180ce8001c80e900000e78001040780057
:101ab0000d00370000c8b30080cf56001b003a006d
:101ac000180ce8001c80e900000e78008001eb0093
:101ad000100178001100370001c8b30081cf560013
:101ae00012003a00180ce800e0df9f000800370001
:101af00050c2b300e0df9f000e0c78000000eb0046
:101b0000c0b79f00e0b79f008080eb00d1b79f0077
:101b100013002000e2fd2f000f014100f880570064
:101b200009007800c5fc07007bff3700180ce800af
:101b30000a0078004f0778004f06be004f05be0030
:101b40004f04be006f01b100000006008200fa00e1
:101b5000889fbe008a1f7800000578008204780004
:101b6000c13f9f000004eb0010003700090278001d
:101b700088017800a2f72f000f01410081f72f00a4
:101b80008f8040000a00780090fe070008004000a7
:101b9000880f500004003d00b004200050858800ec
:101ba0000084eb0004003700000478004f389700f1
:101bb0001004e000edff3a00080078004f057800bf
:101bc0004f04be000080fa0000000600889fbe009f
:101bd0008a1f780000047800010578000000eb00ff
:101be0000800e0001a003200180090000058a3001e
:101bf0000c003200ea04440068009000990f1000c5
:101c000008003600b80990000001eb00820078005f
:101c100008007800030001000080eb001900e000dc
:101c20000b003200740044000008eb006c0044001c
:101c30000008eb006a0044000008eb000000eb0025
:101c40000a00e0000200320018007800a4fb070040
:101c50004f0578004f04be0000000600889fbe00bc
:101c60008a1f78000004be000000eb000800e000be
:101c700029003200180090000058a3001200320022
:101c80006a054400680090009a0f100008003600b2
:101c9000b80990000001eb0082007800080078008d
:101ca000030001000080eb001a00e0001a0032007f
:101cb000740044000008eb006c0044000008eb00d6
:101cc0006a0044000008eb00780a900008109000b9
:101cd000800f520006003100000252001100200067
:101ce000cfa2de00612bb900180078006dfb070061
:101cf00000022000080040000008eb007e004400c5
:101d00000008eb000000eb000900e00002003200d8
:101d10001800780072fb07004f0578004f04be00e2
:101d2000000006008001780002003700b1597800f9
:101d30000201e9000200e000fcff3a00000006009a
:101d4000889fbe008a9fbe00800478000200e000e9
:101d50005a00320001407800814c780082814400b2
:101d6000f1f99f00e20f51005400360091449800b1
:101d7000a1449800e1f99f00d1f99f00e60f5100be
:101d80004e003600b1449800c1f99f00e80f5100a1
:101d90004a0036000905ea00630565000a8444002c
:101da0000a055100c1ff2f00010565000080fb00fe
:101db0008000eb00121020001310200083010700a8
:101dc000008cbe000a01440060b99f0071b99f00f9
:101dd000e80f5500390036002004980031049800bf
:101de000400498005104980020b99f0031b99f0029
:101df00040b99f0051b99f00f80f55002f003600e1
:101e00006004980071049800000c9800110c980070
:101e1000200c9800310c9800400c9800510c980050
:101e200020b19f0031b19f0040b19f0051b19f0090
:101e300060b19f0071b19f0000b99f0011b99f0070
:101e40006401640078014100020444000205550069
:101e50006011b8000203be000002be000403be0011
:101e60006022b800000072008180720002017300dd
:101e7000838173000f00370008027800009abe00cb
:101e8000029abe00009abe000292be00000c9800aa
:101e9000110c9800220c9800330c9800400c98000c
:101ea000510c9800620c9800730c98000a02b10063
:101eb0000802b000ff0f5500efff3e000900780058
:101ec0004f05be004f04be000000060080007800f1
:101ed000040037003104e00002003a000000510025
:101ee00000000600010178000108a300f9ff3a0094
:101ef0008101780031017800f4ef2f0002024200e6
:101f00000281ea0002016200040828000401610065
:101f1000f7ff320083007800010178003104e0000f
:101f2000fdff3a000000510000000600800078002c
:101f30001000200002022000828f500004003200b6
:101f4000e9805000e48f5000010036000000eb00f3
:101f500000000600889fbe008a1f78008004780079
:101f60000904780088047800394578000a00fb00ed
:101f7000eeff07000000e000f9ff3a00b0c2b30036
:101f8000804f550005003200d0c2b3008000eb0046
:101f9000804f550005003a00020037008000eb003a
:101fa00001003700110020000804e8000000eb00e9
:101fb00003003700ea00b900020050000003b0003f
:101fc0003801fb0003fd2f0082814100e98f5100a1
:101fd000f8ff36000100e00001003a000000ea00ce
:101fe0004f0578004f04be0000000600f1fb2f00f3
:101ff00080804000f98f500001003e000050a0009a
:1020000000000600f9ff3700f1f92f008080400042
:10201000f98f500001003e00f005b20000000600fc
:10202000f9ff3700881f78000004780000082000be
:10203000808f50001700350010082000808f50005e
:102040000b00340030082000808f500011003a004f
:102050009200780068805000000978003002be00cd
:102060002003be00049cbe000694be00070037009b
:102070009202780064805200000978001000be00cf
:102080009e000700009cbe000294be0010002000cd
:10209000010037000000eb004f047800000006004c
:1020a00084082000848f50001d0032000d003c0089
:1020b00014082000848f50002700320002003c00ea
:1020c000040820000400370024082000848f5000fa
:1020d0002a00320044082000848f500048003a0053
:1020e0003b003700040a2000848f50002c0032008f
:1020f00004003c0004092000848f500040003a0096
:102100002d003700020c2000828f50001e0032008c
:10211000020f2000828f500039003a003000370053
:102120009380e9000200e000050032008109780098
:102130001102fb00cfa2de00612bb9002d00370099
:1021400081097800114278000482fb008002eb00d4
:102150006033b8002700370013027800e400520013
:102160000200e0000a003200810978001102be007e
:102170004fabde00860378001e0037009302780024
:10218000e88052000e00370093027800e48052008d
:10219000810978001102be006033b80015003700d5
:1021a0009380e9008109780011027800cfa2de0057
:1021b000612bb9000f00370013037800e8005300cb
:1021c000810978003102be002103be0009003700fa
:1021d0009380e9000200e00002003200f1ff3700c6
:1021e0009380e90081097800110278008002eb00f9
:1021f0006033b8000498be000690be0010000500d1
:102200000000050044082000848f500027003200a1
:102210000a003c0014082000848f50001c0032008b
:1022200024082000848f500026003200040820007b
:10223000848f50002c003a001c0037000409200055
:10224000848f50001f00320004003c0084082000ee
:10225000848f500024003a0007003700040a200051
:10226000848f500011003200040c2000848f500035
:102270001d003a00060037009380e90081097800cc
:102280009100780001087800824878001500370036
:102290009380e900810978009100780001087800b6
:1022a000cf91de008288be000e0037009380e900e7
:1022b0008109780091007800010878008208780090
:1022c000080037009380e9008109780091007800c8
:1022d000010878006112b900612bb9008498be0032
:1022e0008690be00100005000000050000000600fa
:1022f0003dfa0700fdff0700fcff3700810378006f
:102300001d0007000001be006000b8000478a300b3
:1023100013003a006220e10015003e000d00390074
:102320008301d1000281d3008180d3008301d100d9
:102330000281d3008180d3008301d1000281d300c8
:102340008180d3000538b000c42add00f300b2005c
:102350008381720007f0a70003f0a00000000600d0
:1023600083ff2700020020006110b900f9ff370049
:1023700003ff2700f7ff3700c70ade00f107b200ae
:10238000f50fb20008003200e1cf42000200320037
:102390000170a00024000500810f700001003200d0
:1023a0000408050044000500810f700002003a0097
:1023b000140005008502e9000000400081c04800cb
:1023c000fcff3b000170a00024000500020ab900d8
:1023d000001bb9000200b8008100420081004300e8
:1023e0000000060000c0da000000060000c0da00ad
:1023f00000000600889fbe008a9fbe003004420095
:10240000b0844a0030054b0090854b006000b1005d
:102410000898be000a90be000440e10005c8e10033
:1024200006d0e10007d8e10002003100680040005a
:102430001008e8004f05be004f04be000000060073
:10244000889fbe008a9fbe003004be002005be00eb
:102450000418540005985c0006185d0007985d009c
:10246000110020000440e10005c8e10006d0e100b1
:1024700007d8e100010039008000eb00108810004f
:102480004f05be004f04be0000000600f487470061
:10249000889fbe008a9fbe008c9fbe008e1f780062
:1024a000d0b79f00e1b79f00f2b79f0083bf9f00a6
:1024b0000605be000404be00cfae97000000eb008e
:1024c000c0b79f00b0b79f00a0b79f0090b79f0014
:1024d00080b79f00000678004fb0970000014000d1
:1024e0000000e00006003d003c0007000f07470029
:1024f000450007000f004000beff07000500370041
:10250000360007000f0747003f0007000f0040009c
:10251000cbff07004fb797000e00e0000c0035001e
:102520005fb29700efb297007fb397008fbb970021
:1025300010002000010020006011b80000027200ad
:102540008182720002037300838373001c00070002
:102550000c06e80001042000810f5600deff3a005f
:102560000e00e00005003d000802be000a03be00a8
:1025700000fe2f000f0040009eff07000d00e0004e
:1025800005003a000fb297009fb297002fb3970053
:10259000bfb397000a0007005fb09700efb0970045
:1025a0007fb197008fb997004f0778004f06be00a4
:1025b0004f05be004f04be004f01b10000000600f1
:1025c000010007000000060094b79f00a5b79f0018
:1025d000b6b79f00c7b79f00000006009fb09700e6
:1025e0004f08de0002017000a2b79f000fb09700f5
:1025f0004f01de00818040008100710091b79f0093
:102600000efe2f0000000600de0078004f09de00fd
:10261000000040000000710080b79f006fa8970085
:102620004f01de0081804000010f71000e000700a5
:102630004f3ade000000400004007000e0af9f0051
:10264000090007000402420085824a0006034b008d
:1026500087834b00dcff07000802be000a03be00b0
:1026600000fe2f00000006001fb29700afb29700d7
:102670003fb39700cfb3970000000600881f780093
:1026800018002000881f780080ff07008f87e9006e
:102690004f04780000000600801feb007bff07005e
:1026a0008f87e90000000600889fbe008a9fbe0059
:1026b000e00f5000e08f5800e00f5900e08f590004
:1026c0000c003d006044b8006055b80000005400a4
:1026d00081805c0002015d0083815d0018002000a4
:1026e0001500070008003d00180007000004eb007b
:1026f000050037000004eb000f00070002003d005a
:102700001200070018002000dcff07000800e000ae
:10271000060032006022b8006033b80000005200aa
:1027200081805a0002015b0083815b004f05be007f
:102730004f04be0000000600e00f5200e08f5a0078
:10274000e00f5b00e08f5b00000006006044b80013
:102750006055b8000402540085825c0006035d00e9
:1027600087835d0000000600889fbe008a9fbe0030
:102770008c1f7800e00f5000e08f5800e00f5900e8
:10278000e08f59000d003d006044b8006055b8006e
:102790000000540081805c0002015d0083815d00c7
:1027a0001c0020000820e10009a8e1000ab0e100b7
:1027b0000bb8e1000d003d00080037000006eb00fb
:1027c000e00f5200e08f5a00e00f5b00e08f5b00eb
:1027d00006003d006044b8006055b8000402540093
:1027e00085825c0006035d0087835d00aaff070009
:1027f0000c00e000060032006022b8006033b80030
:102800000000520081805a0002015b0083815b005e
:102810004f0678004f05be004f04be0000000600c2
:020000040000fa
:102820006473000070690000632000002d3e00000a
:0c28300020250000750a00000d000000cb
:020000040000fa
:10283c000000fa002188a9002168a90000082000e6
:10284c00c01188003a22ef003c22ef002002200049
:10285c00f011880070062000001288004222ef0060
:10286c004c22ef004e22ef005022ef005222ef00dc
:10287c005422ef005622ef005822ef005a22ef00ac
:10288c005c22ef0080092100308088008009210043
:10289c0020808800100a210010808800100a210076
:1028ac00008088000870ef006048210008000700d5
:1028bc00404a2100150007002168a80039e2a80051
:1028cc0038a2a8003882a8000080fa000000060098
:1028dc000200fa00000f78001e0078000000e000f3
:1028ec0003003a0060482100508088000200370045
:1028fc009e007800518088000080fa0000000600dd
:10290c000000fa000080fa00000006000200fa0045
:10291c00000f78001e0078000000e00003003a0071
:10292c00404a210060808800020037009e00780039
:10293c00618088000080fa00000006000000fa00a8
:10294c000080fa00000006000200fa000040eb00d4
:10295c00004f780000000000118080000080800093
:10296c00808f5000fcff320010808000104f7800e8
:10297c00108080000000e80010808800118080002a
:10298c00a00a2100808f500002003a00100a21009a
:10299c00108088001e4078000080fa0000000600bd
:1029ac000200fa00004f7800000000001c00070035
:1029bc000004a2000004e000fcff3a00208080002c
:1029cc001e487800208080000000e80020808800ed
:1029dc0021808000100a2100808f500002003a00f4
:1029ec0080092100208088002188a8000080fa003e
:1029fc00000006000000fa001180800000808000ba
:102a0c000080680000f0a7000000ea000000ea0067
:102a1c004f00de00004078000080fa000000060045
:102a2c000400fa000e80e800318080000108780074
:102a3c00218080000e80e80010007800808f50000c
:102a4c00070031000e80e8009000780020808000a4
:102a5c00008050000000e900000f780006003700ed
:102a6c000e80e800900078002080800000805000ec
:102a7c0068004000000f78001e00780000f0a700ee
:102a8c000000ea000000ea004f00de000040780081
:102a9c000080fa00000006000000fa00218080008f
:102aac0030808000808f500009003a00e1118000d6
:102abc00000820000080600000f0a7000000ea0081
:102acc000000ea004f00de000040780001003700f3
:102adc000040eb000080fa00000006000400fa0041
:102aec000e80e800018080000108780011808000d1
:102afc000e80e80010007800810f500007003100b4
:102b0c000e80e8009000780010808000008050005b
:102b1c0069004000000f7800040037000e80e800c8
:102b2c009000780010808000008f5000f00f200083
:102b3c009e007800808f50000200360000c0eb0031
:102b4c00020037001e007800004078000080fa0078
:102b5c00000006000400fa000e80e80031808000be
:102b6c0001087800218080000e80e80010007800b9
:102b7c00808f5000070031000e80e8009000780034
:102b8c0020808000008050000000e900000f7800d9
:102b9c00060037000e80e80090007800208080004e
:102bac000080500068004000000f7800f00f2000fb
:102bbc009e007800808f50000200360000c0eb00b1
:102bcc00020037001e007800004078000080fa00f8
:102bdc00000006000800fa006401470000097800b4
:102bec006600470001087800bcff07000080fb006e
:102bfc00000f780066004700100078009e0f500010
:102c0c000200310066004700100f78008000eb00d6
:102c1c000e80e800010878000e0037004aff07001c
:102c2c00e400470091007800804878006400470079
:102c3c00100078008000e80064004700010878006c
:102c4c000e80e800100078008000e8000e80e8009c
:102c5c00010878000e80e800100078009e0f5000ec
:102c6c00eeff39001e0078000080fa00000006001c
:102c7c000800fa006401470000097800660047006c
:102c8c0001087800b3ff07000080fb00000f7800fc
:102c9c0066004700100078009e0f500002003100c3
:102cac0066004700100f78008000eb000e80e800f3
:102cbc00010878000e00370064004700100078000f
:102ccc0010407800e4004700910078000101e80012
:102cdc00e40047008208780031ff07000e80e8000e
:102cec00100078008000e8000e80e80001087800f1
:102cfc000e80e800100078009e0f5000eeff3900a7
:102d0c001e0078000080fa00000006000400fa00a3
:102d1c000000eb00000f780070ff07008e80e800c9
:102d2c00804878008bff0700e3004700804878005c
:102d3c000e80e800104078000080fb000000e000ee
:102d4c0003003200e90f500003003200040037008a
:102d5c001e20a000040037001e00a0000200370057
:102d6c001e10a00000000000630047001040780017
:102d7c000080fb000000e00003003200e90f50006f
:102d8c0003003200040037001e30a00002003700a0
:102d9c001e40a000000000001e0078000080fa0019
:102dac00000006000400fa008e80e800800878001d
:102dbc00118080000e80e80010007800008f400029
:102dcc00020037009e007800698f5000a00a210095
:102ddc009e007800808f5000faff3e001e007800a5
:102dec00104078000080fa00000006000000fa0095
:102dfc003aff07000080fb000000e9004f00de00f6
:102e0c00004078000080fa00000006000000fa0084
:102e1c0050ff07000080fb000000e9004f00de00bf
:102e2c00004078000080fa00000006000400fa0060
:102e3c00f01180008000eb00008fbe001e00be0071
:102e4c00c001dd0002002000e01180008000eb00da
:102e5c0000007100818071000080fa000000060003
:102e6c000000fa003bff07000004e00010003200f5
:102e7c003180800020808000808f5000060036005a
:102e8c00308080008000780020808000008050001e
:102e9c000000e900070037003080800080007800d7
:102eac002080800000805000680040000100370046
:102ebc000000eb000080fa00000006000000fa00a1
:102ecc0006ff07000004e0001000320011808000b3
:102edc0000808000808f500006003600108080003b
:102eec008000780000808000008050000000e90025
:102efc000700370010808000800078000080800080
:102f0c000080500068004000010037000000eb001a
:102f1c000080fa00000006000000fa0039e2a80068
:102f2c0038a2a8003882a8000080fa000000060031
:102f3c000000fa0039e2a90038a2a9003882a900e1
:102f4c000080fa00000006000000fa00002bef00e1
:102f5c000006200010588800042bef00062bef0011
:102f6c00082bef000a2bef00102bef00122bef00b9
:102f7c00142bef00202bef0030002000105988009c
:102f8c00382bef00402bef00482bef00502bef00bd
:102f9c003a2bef00422bef004a2bef00522bef00a5
:102fac003c2bef00442bef004c2bef00542bef008d
:102fbc003e2bef00462bef004e2bef00562bef0075
:102fcc0000402000505b880000402000705b8800af
:102fdc0000402000905b880000402000b05b88001f
:102fec00a02bef00a42bef00a82bef00ac2bef00d5
:102ffc00d02bef00d22bef00f02bef00f22bef00d9
:10300c00022cef00c08521002b000700a0882100b6
:10301c0041000700c08b210058000700008d2100e3
:10302c00600007000d68a9002d68a8000d88a90094
:10303c002d88a8001160800000f0200001007000b5
:10304c001060880001eba8000d0007002000200094
:10305c00005c8800822bef00842bef00862bef00a6
:10306c00882bef008a2bef008c2bef008e2bef00c0
:10307c0010102000805c88000080fa000000060020
:10308c000000fa0000eca8000000000001608000c5
:10309c0000002800008060000000e000fbff320010
:1030ac000aeba8000080fa00000006000000fa00fd
:1030bc000080fa00000006000200fa00000f780001
:1030cc001e007800708088000080fa000000060066
:1030dc000000fa0051408000004020000080600099
:1030ec000000e00006003200708080000000e0006c
:1030fc000200320070808000000001000b48a90023
:10310c000080fa00000006000200fa00000f7800b0
:10311c000080fa00000006000200fa00000f7800a0
:10312c001e007800808088000080fa0000000600f5
:10313c000200fa0080598000610060000000e0008d
:10314c000800320061608000010f780080808000f0
:10315c000000e00003003200818080001e00780037
:10316c00010001000080fa00000006000200fa00d5
:10317c00000f78000080fa00000006000200fa0040
:10318c00000f78001e007800908088000080fa0004
:10319c00000006000200fa00000f78000080fa0020
:1031ac00000006000200fa00000f78001e007800f4
:1031bc00a08088000080fa00000006000000fa00e1
:1031cc00007c80000080fa00000006000200fa007b
:1031dc00faff0700000f78001e007800240007009b
:1031ec000004e00002003200000028007d0007000f
:1031fc001e0078002c0007000004e00002003200e2
:10320c0000002400770007001e007800360007003d
:10321c000004e000020032000020200071000700d2
:10322c001e007800400007000004e000020032009d
:10323c00000820006b0007001e0078004a00070001
:10324c000004e000020032000004200065000700ca
:10325c001e007800540007000004e0000200320059
:10326c00000120005f0007000080fa00000006004b
:10327c000400fa008e80e800800878000040eb0023
:10328c00004f78000e80e800100078000000e0008d
:10329c0002003d0010c0b300004f78001e407800c3
:1032ac000080fa00000006000400fa008e80e8009e
:1032bc00800878000040eb00004f78000e80e8009a
:1032cc009000780000002400008060000000e00006
:1032dc000200320010c0b300004f78001e4078008e
:1032ec000080fa00000006000400fa008e80e8005e
:1032fc00800878000040eb00004f78000e80e8005a
:10330c009000780000202000008060000000e000a9
:10331c000200320010c0b300004f78001e4078004d
:10332c000080fa00000006000400fa008e80e8001d
:10333c00800878000040eb00004f78000e80e80019
:10334c009000780000082000008060000000e00081
:10335c000200320010c0b300004f78001e4078000d
:10336c000080fa00000006000400fa008e80e800dd
:10337c00800878000040eb00004f78000e80e800d9
:10338c009000780000042000008060000000e00045
:10339c000200320010c0b300004f78001e407800cd
:1033ac000080fa00000006000400fa008e80e8009d
:1033bc00800878000040eb00004f78000e80e80099
:1033cc0010007800700060000000e0000200320085
:1033dc0010c0b300004f78001e4078000080fa0047
:1033ec00000006000200fa00000f78001e80ea00c0
:1033fc00017c800001006000007c88000080fa00e5
:10340c00000006000000fa00802fef000080fa0098
:10341c00000006000000fa0001eba8000080fa0092
:10342c00000006000000fa0008cba8000080fa009b
:10343c00000006000000fa0008cba9000080fa008a
:10344c00000006000200fa00000f78000080fa006d
:10345c00000006000400fa008e80e8008008780066
:10346c000e80e80010007800e10f500008003200d8
:10347c00e10f500003003900e20f5000070032004a
:10348c000900370061608000010f780006003700ea
:10349c0061618000010f78000300370071618000ca
:1034ac00010f7800000000001e0078000080fa0078
:1034bc00000006000000fa00e9000700d5ff070035
:1034cc00d0728000aa800a00000000000004a20054
:1034dc00614060000080fb00610060004a00dd007c
:1034ec00d172800001a0a10001007000d072880090
:1034fc000000eb00d3ff0700caff070000fa200012
:10350c0001002000e10007000000eb00d1ff0700e4
:10351c00c0808800c7ff0700c0808000801f780033
:10352c0000412900801f78009cf50700e4875700b4
:10353c0000a8210061002000d4000700e0ff370044
:020000040000fa
:10354c005c1000002000000080000000161000003d
:10355c000200000082000000ffff000018100000b5
:10356c000200000080000000981000001200000013
:10357c0080000000001000000e0000008000000021
:10358c000e10000008000000800000001a1000005f
:10359c0042000000820000001e10200010201000cd
:1035ac00010003000000000000000000000000000b
:1035bc0000002e000e0000000000000000fe0900bc
:1035cc00ee050000000000000000000000000000fc
:1035dc0000000000000000000000000000000000df
:1035ec0000000000000000000000000000000000cf
:1035fc007c1000001c00000082000000286e690096
:10360c006c29000068076c00094c83006a907400f8
:10361c00a07ac00000806800880084006c820000e2
:10362c0081000000aa1000000200000080000000d1
:04363c00000000008a
:020000040000fa
:103640000000fa00062eef00222eef003e2eef00c3
:1036500000402000d0728800f00120001070880027
:10366000d0ff2f00f0708800f0bf2300d0718800d9
:1036700020102200b07288000c2eef00282eef00e0
:10368000442eef00602eef000a2eef00262eef00f2
:10369000422eef0000002200f0728800082eef009a
:1036a000242eef00402eef005c2eef00f0012000f2
:1036b00000708800f0092000e0708800f00c200005
:1036c000c0718800542eef000000eb00510520006f
:1036d000b1468800a10a2000b14688000068880031
:1036e000b0c3b30028edb700d16c800000fc2f0000
:1036f000008060000000a000d06c880000802000e6
:1037000051052000b1468800a10a2000b14688007a
:10371000006888000080fa00000006000000fa003f
:1037200010002300307c880060092000407c880065
:103730008c2fef0010042000507c8800b82fef0081
:10374000ba2fef00be2fef00002def00a02fef00eb
:10375000a42fef00a62fef00a82fef00aa2fef0055
:10376000ae2fef00b02fef00b22fef00720020005d
:1037700080072000a109200053f82000804978002c
:1037800081497800824978000001eb006004200044
:103790007105200043f820008049780081497800b5
:1037a000824978000080fa00000006000000fa005c
:1037b000f1448000f0f82f00008060000040a0007d
:1037c000f04488003142800080ff2f0000806000bc
:1037d0000000a00030428800c1428000f0f82f00b5
:1037e000008060000040a000c042880021428000ac
:1037f000f0ff28000080600000c0a0002042880088
:10380000b143800080ff2f00008060000000a00016
:10381000b0438800a1438000f0ff280000806000d2
:1038200000c0a000a04388000080fa00000006004d
:103830000200fa00000f780021028000200f200013
:10384000008060001e007000200288000080fa00e6
:10385000000006000000fa00c3e8a8000000000015
:10386000000000000080fa00000006000000fa00de
:1038700073ff0700cdff0700a8ff0700effb07005d
:10388000b4fd0700f3ff070000022000e8ff070077
:083890000080fa0000000600b0
:020000040000fa
:10389800f03fb1000180b10006003500ee030900d9
:1038a80000000000403fb1000180b100fbff3d0077
:1038b8001000b000203fb000020035000080090071
:0838c8000000000000000600f2
:020000040000fa
:1038d0000200fa00000f78009e007800b180880096
:1038e000ffff37000000fa00c005210080077800c4
:1038f00040072100000188000080fa000000060057
:020000040000fa
:020000040001f9
:045e0000ffffff00a1
:020000040000fa
:020000040001f9
:045e2000ffffff0081
:020000040000fa
:020000040001f9
:045e30007fffff00f1
:020000040000fa
:020000040001f9
:045e3800bbffff00ad
:020000040000fa
:020000040001f9
:045e40007f7fff0061
:020000040000fa
:020000040001f9
:045e4800ffffff0059
:020000040000fa
:020000040001f9
:045e5000dfffff0071
:020000040000fa
:020000040001f9
:045e58000000ff0047
:020000040000fa
:020000040001f9
:045e60000000ff003f
:020000040000fa
:020000040001f9
:045e68000000ff0037
:020000040000fa
:020000040001f9
:045e70000000ff002f
:020000040000fa
:020000040001f9
:045e7800ffffff0029
:020000040000fa
:020000040001f9
:045e8000fffcff0024
:020000040000fa
:020000040001f9
:045e8800ffffff0019
:00000001FF
