:020000040000fa
:080000000002040000000000f2
:020000040000fa
:04000800540300009d
:020000040000fa
:04000c005403000099
:020000040000fa
:040010005403000095
:020000040000fa
:040014005403000091
:020000040000fa
:04001800540300008d
:020000040000fa
:04001c005403000089
:020000040000fa
:040020005403000085
:020000040000fa
:040024005403000081
:020000040000fa
:04002800540300007d
:020000040000fa
:04002c005403000079
:020000040000fa
:040030005403000075
:020000040000fa
:040034005403000071
:020000040000fa
:04003800540300006d
:020000040000fa
:04003c005403000069
:020000040000fa
:040040005403000065
:020000040000fa
:040044005403000061
:020000040000fa
:04004800540300005d
:020000040000fa
:04004c005403000059
:020000040000fa
:040050005403000055
:020000040000fa
:04005400c8020000de
:020000040000fa
:04005800540300004d
:020000040000fa
:04005c005403000049
:020000040000fa
:040060005403000045
:020000040000fa
:040064005403000041
:020000040000fa
:04006800540300003d
:020000040000fa
:04006c005403000039
:020000040000fa
:040070005403000035
:020000040000fa
:040074005403000031
:020000040000fa
:04007800540300002d
:020000040000fa
:04007c005403000029
:020000040000fa
:040080005403000025
:020000040000fa
:040084005403000021
:020000040000fa
:04008800540300001d
:020000040000fa
:04008c005403000019
:020000040000fa
:040090005403000015
:020000040000fa
:040094005403000011
:020000040000fa
:04009800540300000d
:020000040000fa
:04009c005403000009
:020000040000fa
:0400a0005403000005
:020000040000fa
:0400a4005403000001
:020000040000fa
:0400a80054030000fd
:020000040000fa
:0400ac0054030000f9
:020000040000fa
:0400b00054030000f5
:020000040000fa
:0400b40054030000f1
:020000040000fa
:0400b80054030000ed
:020000040000fa
:0400bc0054030000e9
:020000040000fa
:0400c00054030000e5
:020000040000fa
:0400c40054030000e1
:020000040000fa
:0400c80054030000dd
:020000040000fa
:0400cc0054030000d9
:020000040000fa
:0400d00054030000d5
:020000040000fa
:0400d40054030000d1
:020000040000fa
:0400d80054030000cd
:020000040000fa
:0400dc0054030000c9
:020000040000fa
:0400e00054030000c5
:020000040000fa
:0400e40054030000c1
:020000040000fa
:0400e80054030000bd
:020000040000fa
:0400ec0054030000b9
:020000040000fa
:0400f00054030000b5
:020000040000fa
:0400f40054030000b1
:020000040000fa
:0400f80054030000ad
:020000040000fa
:0400fc0054030000a9
:020000040000fa
:0401000054030000a4
:020000040000fa
:0401040054030000a0
:020000040000fa
:04010800540300009c
:020000040000fa
:04010c005403000098
:020000040000fa
:040110005403000094
:020000040000fa
:040114005403000090
:020000040000fa
:04011800540300008c
:020000040000fa
:04011c005403000088
:020000040000fa
:040120005403000084
:020000040000fa
:040124005403000080
:020000040000fa
:04012800540300007c
:020000040000fa
:04012c005403000078
:020000040000fa
:040130005403000074
:020000040000fa
:040134005403000070
:020000040000fa
:04013800540300006c
:020000040000fa
:04013c005403000068
:020000040000fa
:040140005403000064
:020000040000fa
:040144005403000060
:020000040000fa
:04014800540300005c
:020000040000fa
:04014c005403000058
:020000040000fa
:040150005403000054
:020000040000fa
:04020800540300009b
:020000040000fa
:04020c005403000097
:020000040000fa
:040210005403000093
:020000040000fa
:04021400540300008f
:020000040000fa
:04021800540300008b
:020000040000fa
:04021c005403000087
:020000040000fa
:040220005403000083
:020000040000fa
:04022400540300007f
:020000040000fa
:04022800540300007b
:020000040000fa
:04022c005403000077
:020000040000fa
:040230005403000073
:020000040000fa
:04023400540300006f
:020000040000fa
:04023800540300006b
:020000040000fa
:04023c005403000067
:020000040000fa
:040240005403000063
:020000040000fa
:04024400540300005f
:020000040000fa
:04024800540300005b
:020000040000fa
:04024c005403000057
:020000040000fa
:040250005403000053
:020000040000fa
:04025400c8020000dc
:020000040000fa
:04025800540300004b
:020000040000fa
:04025c005403000047
:020000040000fa
:040260005403000043
:020000040000fa
:04026400540300003f
:020000040000fa
:04026800540300003b
:020000040000fa
:04026c005403000037
:020000040000fa
:040270005403000033
:020000040000fa
:04027400540300002f
:020000040000fa
:04027800540300002b
:020000040000fa
:04027c005403000027
:020000040000fa
:040280005403000023
:020000040000fa
:04028400540300001f
:020000040000fa
:04028800540300001b
:020000040000fa
:04028c005403000017
:020000040000fa
:040290005403000013
:020000040000fa
:04029400540300000f
:020000040000fa
:04029800540300000b
:020000040000fa
:04029c005403000007
:020000040000fa
:0402a0005403000003
:020000040000fa
:0402a40054030000ff
:020000040000fa
:0402a80054030000fb
:020000040000fa
:0402ac0054030000f7
:020000040000fa
:0402b00054030000f3
:020000040000fa
:0402b40054030000ef
:020000040000fa
:0402b80054030000eb
:020000040000fa
:0402bc0054030000e7
:020000040000fa
:0402c00054030000e3
:020000040000fa
:0402c40054030000df
:020000040000fa
:0402c80054030000db
:020000040000fa
:0402cc0054030000d7
:020000040000fa
:0402d00054030000d3
:020000040000fa
:0402d40054030000cf
:020000040000fa
:0402d80054030000cb
:020000040000fa
:0402dc0054030000c7
:020000040000fa
:0402e00054030000c3
:020000040000fa
:0402e40054030000bf
:020000040000fa
:0402e80054030000bb
:020000040000fa
:0402ec0054030000b7
:020000040000fa
:0402f00054030000b3
:020000040000fa
:0402f40054030000af
:020000040000fa
:0402f80054030000ab
:020000040000fa
:0402fc0054030000a7
:020000040000fa
:0403000054030000a2
:020000040000fa
:04030400540300009e
:020000040000fa
:04030800540300009a
:020000040000fa
:04030c005403000096
:020000040000fa
:040310005403000092
:020000040000fa
:04031400540300008e
:020000040000fa
:04031800540300008a
:020000040000fa
:04031c005403000086
:020000040000fa
:040320005403000082
:020000040000fa
:04032400540300007e
:020000040000fa
:04032800540300007a
:020000040000fa
:04032c005403000076
:020000040000fa
:040330005403000072
:020000040000fa
:04033400540300006e
:020000040000fa
:04033800540300006a
:020000040000fa
:04033c005403000066
:020000040000fa
:040340005403000062
:020000040000fa
:04034400540300005e
:020000040000fa
:04034800540300005a
:020000040000fa
:04034c005403000056
:020000040000fa
:040350005403000052
:020000040000fa
:100400006f8120000eff20000e0188000000000018
:10041000000020000000e000020032000001200087
:100420002002880014000700a10007000000e0007f
:1004300003003a00004820000100200002003700bd
:100440000000200001002000810f70000100320038
:1004500014000700000020000000e000020032004d
:10046000000002000000000008040200000000007c
:100470000040da000000fe004440a9000000200017
:100480000000e0000300320000002000a00188000e
:100490004440a800000006008a1f78008b1f7800e7
:1004a0000000060091018800800478000000eb0045
:1004b0001a003700e284440032a0b4009905ba0063
:1004c000e284440032a0b4009906ba00e2844400f9
:1004d00032a0b4000006eb00476fde00fd07b2005b
:1004e000636ce10003003a00ebff07000000eb0043
:1004f0000a003700606ce10004003a00005deb0088
:100500008b05e900fdff3e00040037006168e10053
:10051000010032000086eb000b00070019c7ba008b
:100520001905ba000e04e00003003a000a00e000da
:10053000e0ff3a0000000600fe07b2009e018800be
:100540008a047800f5ff3700395dba008b05e900b1
:100550000c003200295dba008b05e900080032006a
:100560000c00e00003003a00e284440032a0b40032
:10057000f5ff370019ddba008b05e900faff3a00f4
:100580008904e800e184440032a0b40000000600c1
:10059000809fbe000000fa00101180006200600021
:1005a0000000e000020032002222a9000b00370008
:1005b00010118000640060000000e00007003a00b5
:1005c00010118000680060000000e00003003a00a5
:1005d000301180000040780014e8b70014c8bf0054
:1005e0000000fb0041062000810f50002000320077
:1005f00041062000810f50000a003c002106200027
:10060000810f50001600320021062000810f50009b
:1006100015003c0011062000810f50000e00320032
:100620001d00370061062000810f500014003200c9
:1006300061062000810f50000f0035007106200078
:10064000810f50001000320081062000810f500001
:100650000f00320010003700cde2a8000e00370076
:10066000cde2a9000c003700cdc2a8000a00370077
:10067000cdc2a90008003700cda2a80006003700af
:10068000cda2a90004003700cd82a80002003700e7
:10069000cd82a900000000008560a9000080fa005a
:1006a0004f00be00004006000040da000000fe00df
:1006b000000005006022b800060220000000d00003
:1006c0008180d2000482d2008582d2000000a00086
:1006d0000202520083825a000300310002024200eb
:1006e00083824a000000a1000603e900f3ff3a00fc
:0406f0000000060000
:020000040000fa
:1006f4000400fa00008fbe00401680000080a100b4
:10070400401688004136800000fe2f000080600003
:100714003000b300403688004016800000a0a000de
:10072400401688002135800000fe2f000080600004
:10073400a000b3002035880021e2a9002002a9000e
:100744000111800090ff2f000080600000118800dc
:100754002062a9001e01be00404b2c004100200075
:10076400d3ff0700000078000000e9004011880072
:100774002342a80011118000f0f32f0000806000d4
:10078400101188009560a8008560a90041058000cb
:1007940000002700010070004005880021e2a80045
:1007a4000080fa00000006000200fa00004f780002
:1007b4000000000011118000002020000080600073
:1007c4000000e000fbff3a001e00fb00201188003f
:1007d4000080fa00000006000200fa00000f780012
:1007e400040037001e007800104078001e0fe80057
:1007f400edff07001e007800104078000004e000c0
:10080400f8ff3a000080fa00000006000400fa0035
:10081400000f78000e80e80001087800411680007f
:10082400f0ff20000080600040168800005822007d
:1008340001002000aeff0700005a220061022000e0
:1008440020000700fcff37000800fa008e81e80052
:1008540080097800640047000108780066004700ba
:10086400020878000000eb00000f78000000eb00a5
:10087400000f78000a003700640047001000780079
:1008840010407800e4004700910078000101e8007e
:10089400e400470082087800c3ff07001e0fe80049
:1008a40066004700100078009e007800808f50009a
:1008b400f1ff390066004700100078000080fa005c
:0408c400000006002a
:020000040000fa
:1008c800f03fb1000180b10006003500ee030900d9
:1008d80000000000403fb1000180b100fbff3d0077
:1008e8001000b000203fb000020035000080090071
:0808f8000000000000000600f2
:020000040000fa
:100900000008000014000000020000006100370031
:1009100000f90f00494068006f6c6100206d7500a0
:100920006e646f0000000000140800000200000068
:080930000000000000000000bf
:020000040000fa
:0200000401f009
:04000000ffffff00ff
:020000040000fa
:0200000401f009
:04000800ffffff00f7
:020000040000fa
:0200000401f009
:04000c00820000006e
:020000040000fa
:0200000401f009
:04001000a500000047
:020000040000fa
:0200000401f009
:040014005f00000089
:020000040000fa
:0200000401f009
:04001800f7000000ed
:020000040000fa
:0200000401f009
:04001c00dfff000002
:00000001FF
