:020000040000fa
:080000000002040000000000f2
:020000040000fa
:04000800c80200002a
:020000040000fa
:04000c00c802000026
:020000040000fa
:04001000c802000022
:020000040000fa
:04001400c80200001e
:020000040000fa
:04001800c80200001a
:020000040000fa
:04001c00c802000016
:020000040000fa
:04002000c802000012
:020000040000fa
:04002400c80200000e
:020000040000fa
:04002800c80200000a
:020000040000fa
:04002c00c802000006
:020000040000fa
:04003000c802000002
:020000040000fa
:04003400c8020000fe
:020000040000fa
:04003800c8020000fa
:020000040000fa
:04003c00c8020000f6
:020000040000fa
:04004000c8020000f2
:020000040000fa
:04004400c8020000ee
:020000040000fa
:04004800c8020000ea
:020000040000fa
:04004c00c8020000e6
:020000040000fa
:04005000c8020000e2
:020000040000fa
:04005400c8020000de
:020000040000fa
:04005800c8020000da
:020000040000fa
:04005c00c8020000d6
:020000040000fa
:04006000c8020000d2
:020000040000fa
:04006400c8020000ce
:020000040000fa
:04006800c8020000ca
:020000040000fa
:04006c00c8020000c6
:020000040000fa
:04007000c8020000c2
:020000040000fa
:04007400c8020000be
:020000040000fa
:04007800c8020000ba
:020000040000fa
:04007c00c8020000b6
:020000040000fa
:04008000c8020000b2
:020000040000fa
:04008400c8020000ae
:020000040000fa
:04008800c8020000aa
:020000040000fa
:04008c00c8020000a6
:020000040000fa
:04009000c8020000a2
:020000040000fa
:04009400c80200009e
:020000040000fa
:04009800c80200009a
:020000040000fa
:04009c00c802000096
:020000040000fa
:0400a000c802000092
:020000040000fa
:0400a400c80200008e
:020000040000fa
:0400a800c80200008a
:020000040000fa
:0400ac00c802000086
:020000040000fa
:0400b000c802000082
:020000040000fa
:0400b400c80200007e
:020000040000fa
:0400b800c80200007a
:020000040000fa
:0400bc00c802000076
:020000040000fa
:0400c000c802000072
:020000040000fa
:0400c400c80200006e
:020000040000fa
:0400c800c80200006a
:020000040000fa
:0400cc00c802000066
:020000040000fa
:0400d000c802000062
:020000040000fa
:0400d400c80200005e
:020000040000fa
:0400d800c80200005a
:020000040000fa
:0400dc00c802000056
:020000040000fa
:0400e000c802000052
:020000040000fa
:0400e400c80200004e
:020000040000fa
:0400e800c80200004a
:020000040000fa
:0400ec00c802000046
:020000040000fa
:0400f000c802000042
:020000040000fa
:0400f400c80200003e
:020000040000fa
:0400f800c80200003a
:020000040000fa
:0400fc00c802000036
:020000040000fa
:04010000c802000031
:020000040000fa
:04010400c80200002d
:020000040000fa
:04010800c802000029
:020000040000fa
:04010c00c802000025
:020000040000fa
:04011000c802000021
:020000040000fa
:04011400c80200001d
:020000040000fa
:04011800c802000019
:020000040000fa
:04011c00c802000015
:020000040000fa
:04012000c802000011
:020000040000fa
:04012400c80200000d
:020000040000fa
:04012800c802000009
:020000040000fa
:04012c00c802000005
:020000040000fa
:04013000c802000001
:020000040000fa
:04013400c8020000fd
:020000040000fa
:04013800c8020000f9
:020000040000fa
:04013c00c8020000f5
:020000040000fa
:04014000c8020000f1
:020000040000fa
:04014400c8020000ed
:020000040000fa
:04014800c8020000e9
:020000040000fa
:04014c00c8020000e5
:020000040000fa
:04015000c8020000e1
:020000040000fa
:04020800c802000028
:020000040000fa
:04020c00c802000024
:020000040000fa
:04021000c802000020
:020000040000fa
:04021400c80200001c
:020000040000fa
:04021800c802000018
:020000040000fa
:04021c00c802000014
:020000040000fa
:04022000c802000010
:020000040000fa
:04022400c80200000c
:020000040000fa
:04022800c802000008
:020000040000fa
:04022c00c802000004
:020000040000fa
:04023000c802000000
:020000040000fa
:04023400c8020000fc
:020000040000fa
:04023800c8020000f8
:020000040000fa
:04023c00c8020000f4
:020000040000fa
:04024000c8020000f0
:020000040000fa
:04024400c8020000ec
:020000040000fa
:04024800c8020000e8
:020000040000fa
:04024c00c8020000e4
:020000040000fa
:04025000c8020000e0
:020000040000fa
:04025400c8020000dc
:020000040000fa
:04025800c8020000d8
:020000040000fa
:04025c00c8020000d4
:020000040000fa
:04026000c8020000d0
:020000040000fa
:04026400c8020000cc
:020000040000fa
:04026800c8020000c8
:020000040000fa
:04026c00c8020000c4
:020000040000fa
:04027000c8020000c0
:020000040000fa
:04027400c8020000bc
:020000040000fa
:04027800c8020000b8
:020000040000fa
:04027c00c8020000b4
:020000040000fa
:04028000c8020000b0
:020000040000fa
:04028400c8020000ac
:020000040000fa
:04028800c8020000a8
:020000040000fa
:04028c00c8020000a4
:020000040000fa
:04029000c8020000a0
:020000040000fa
:04029400c80200009c
:020000040000fa
:04029800c802000098
:020000040000fa
:04029c00c802000094
:020000040000fa
:0402a000c802000090
:020000040000fa
:0402a400c80200008c
:020000040000fa
:0402a800c802000088
:020000040000fa
:0402ac00c802000084
:020000040000fa
:0402b000c802000080
:020000040000fa
:0402b400c80200007c
:020000040000fa
:0402b800c802000078
:020000040000fa
:0402bc00c802000074
:020000040000fa
:0402c000c802000070
:020000040000fa
:0402c400c80200006c
:020000040000fa
:0402c800c802000068
:020000040000fa
:0402cc00c802000064
:020000040000fa
:0402d000c802000060
:020000040000fa
:0402d400c80200005c
:020000040000fa
:0402d800c802000058
:020000040000fa
:0402dc00c802000054
:020000040000fa
:0402e000c802000050
:020000040000fa
:0402e400c80200004c
:020000040000fa
:0402e800c802000048
:020000040000fa
:0402ec00c802000044
:020000040000fa
:0402f000c802000040
:020000040000fa
:0402f400c80200003c
:020000040000fa
:0402f800c802000038
:020000040000fa
:0402fc00c802000034
:020000040000fa
:04030000c80200002f
:020000040000fa
:04030400c80200002b
:020000040000fa
:04030800c802000027
:020000040000fa
:04030c00c802000023
:020000040000fa
:04031000c80200001f
:020000040000fa
:04031400c80200001b
:020000040000fa
:04031800c802000017
:020000040000fa
:04031c00c802000013
:020000040000fa
:04032000c80200000f
:020000040000fa
:04032400c80200000b
:020000040000fa
:04032800c802000007
:020000040000fa
:04032c00c802000003
:020000040000fa
:04033000c8020000ff
:020000040000fa
:04033400c8020000fb
:020000040000fa
:04033800c8020000f7
:020000040000fa
:04033c00c8020000f3
:020000040000fa
:04034000c8020000ef
:020000040000fa
:04034400c8020000eb
:020000040000fa
:04034800c8020000e7
:020000040000fa
:04034c00c8020000e3
:020000040000fa
:04035000c8020000df
:020000040000fa
:100400002f8020000eff20000e0188000000000059
:10041000000020000000e000020032000001200087
:1004200020028800140007005b0007000000e000c5
:1004300003003a0020702000010020000200370075
:100440000000200001002000810f70000100320038
:1004500014000700000020000000e000020032004d
:100460000000020000000000fa0602000000000088
:100470000040da000000fe004440a9000000200017
:100480000000e0000300320000002000a00188000e
:100490004440a800000006008a1f78008b1f7800e7
:1004a0000000060091018800800478000000eb0045
:1004b0001a003700e284440032a0b4009905ba0063
:1004c000e284440032a0b4009906ba00e2844400f9
:1004d00032a0b4000006eb00476fde00fd07b2005b
:1004e000636ce10003003a00ebff07000000eb0043
:1004f0000a003700606ce10004003a00005deb0088
:100500008b05e900fdff3e00040037006168e10053
:10051000010032000086eb000b00070019c7ba008b
:100520001905ba000e04e00003003a000a00e000da
:10053000e0ff3a0000000600fe07b2009e018800be
:100540008a047800f5ff3700395dba008b05e900b1
:100550000c003200295dba008b05e900080032006a
:100560000c00e00003003a00e284440032a0b40032
:10057000f5ff370019ddba008b05e900faff3a00f4
:100580008904e800e184440032a0b40000000600c1
:0c0590000040da000000fe000000050042
:020000040000fa
:10059c000200fa00004f78001e80fb006100600032
:1005ac00004078000004e00002003200cd82a80078
:1005bc0001003700cd82a9001e80fb0062006000a4
:1005cc000000e00002003200cda2a80001003700bc
:1005dc00cda2a9001e80fb00640060000000e000ba
:1005ec0002003200cdc2a80001003700cdc2a90024
:1005fc001e80fb00680060000000e000020032007a
:10060c00cde2a80001003700cde2a9000080fa007d
:10061c00000006000200fa00004f7800cd42a9004d
:10062c00cd42a8001e407800d9ff07008038210079
:10063c0001002000de010700cd42a9000080fa0075
:10064c00000006000000fa0041168000f03f200078
:10065c00008060004016880061168000f03f20008a
:10066c00008060006016880030c0b300e9ff07000e
:10067c0030c0b300e7ff070030c0b300e5ff070050
:10068c0020c0b300e3ff070020c0b300e1ff070068
:10069c0080c0b300dfff07000040eb00ddff070068
:1006ac0080c0b300dbff07000040eb00d9ff070060
:1006bc0010c0b300d7ff07000040eb00d5ff0700c8
:1006cc00d0c0b300d3ff07000080fa000000060082
:1006dc000400fa002047980031479800cd62a90029
:1006ec003e4090000080fb00e10f500017003200ec
:1006fc00e10f500003003c000000e0000600320057
:10070c0039003700e20f50001d003200e30f50009b
:10071c002800320034003700ae40900000c8b3000f
:10072c0000cf40002e4090000080fb000008b0007d
:10073c004480de00104798001e409000b5ff070073
:10074c001e407800b3ff070027003700ae40900032
:10075c0000ccb30000cf40002e4090000080fb0086
:10076c00000cb0004480de00104798001e40900042
:10077c00a8ff07001e407800a6ff07001a003700ec
:10078c00ae40900040c9b30000cf40002e40900016
:10079c000080fb004009b0004480de001047980048
:1007ac001e4090009bff07001e40780099ff070039
:1007bc000d003700ae40900040cdb30000cf40009c
:1007cc002e4090000080fb00400db0004480de0005
:1007dc00104798001e4090008eff07001e407800c6
:1007ec008cff0700000000000080fa0000000600eb
:1007fc000400fa0020479800ae409000014f7800aa
:10080c002e4090000000fb004480de000040780089
:10081c0010479800cd62a8001e4090007dff070095
:10082c001e4078007bff07000080fa0000000600e5
:10083c000400fa00100798009e009000010f780049
:10084c00040037001e007800104078001e0fe800ee
:10085c00e7ff07001e007800104078000004e0005d
:10086c00f8ff3a000080fa00000006000a00fa00c7
:10087c00204798003147980042479800534798000a
:10088c006447980075479800064f9800174f9800da
:10089c002e4090000080fb00e20f500062003200fe
:1008ac00e30f5000c8003200e10f500024013a0061
:1008bc0040c0b30057ff07000040eb0055ff070096
:1008cc00cd62a8003e4090000080fb004400de009a
:1008dc00004f7800be409000114798001e407800f1
:1008ec004cff07001e4090004aff07004e4090004e
:1008fc000080fb004400de00004f7800ce409000ea
:10090c00114798001e40780042ff07001e409000df
:10091c0040ff07005e4090000080fb004400de00ba
:10092c00004f7800de409000114798001e40780080
:10093c0038ff07001e40900036ff07006e40900005
:10094c000080fb004400de00004f7800ee40900079
:10095c00114798001e4078002eff07001e409000a3
:10096c002cff07007e4090000080fb004400de005e
:10097c00004f7800fe409000114798001e40780010
:10098c0024ff07001e40900022ff07000e48900035
:10099c000080fb004400de00004f78008e48900081
:1009ac00114798001e4078001aff07001e40900067
:1009bc0018ff07001e4890000080fb004400de007a
:1009cc00004f78009e489000114798001e40780018
:1009dc0010ff07001e4090000eff07000ef8970056
:1009ec000080fb004400de00004f78008ef897007a
:1009fc00114798001e40780006ff07001e4090002b
:100a0c0004ff0700cd62a9000040eb0001ff0700c6
:100a1c0010c0b300fffe070000122a007100200076
:100a2c00e3000700c600370040c0b300f9fe070022
:100a3c0080c0b300f7fe0700cd62a8003e409000d6
:100a4c000080fb004400de00004f7800be409000a8
:100a5c00114798001e407800eefe07001e409000e3
:100a6c00ecfe07004e4090000080fb004400de00ce
:100a7c00004f7800ce409000114798001e4078003f
:100a8c00e4fe07001e409000e2fe07004e4090007e
:100a9c000080fb004400de00004f7800ce40900048
:100aac00114798001e407800dafe07001e409000a7
:100abc00d8fe07005e4090000080fb004400de0082
:100acc00004f7800de409000114798001e407800df
:100adc00d0fe07001e409000cefe07006e40900036
:100aec000080fb004400de00004f7800ee409000d8
:100afc00114798001e407800c6fe07001e4090006b
:100b0c00c4fe07007e4090000080fb004400de0025
:100b1c00004f7800fe409000114798001e4078006e
:100b2c00bcfe07001e409000bafe07000e48900065
:100b3c000080fb004400de00004f78008e489000df
:100b4c00114798001e407800b2fe07001e4090002e
:100b5c00b0fe07001e4890000080fb004400de0041
:100b6c00004f78009e489000114798001e40780076
:100b7c00a8fe07001e409000a6fe07000ef8970086
:100b8c000080fb004400de00004f78008ef89700d8
:100b9c00114798001e4078009efe07001e409000f2
:100bac009cfe0700cd62a9000040eb0099fe0700f7
:100bbc0010c0b30097fe070000122a00710020003d
:100bcc007b0007005e00370040c0b30091fe0700b9
:100bdc0000c0eb008ffe0700cd62a8003e409000e5
:100bec000080fb004400de00004f7800be40900007
:100bfc00114798001e40780086fe07001e409000aa
:100c0c0084fe07004e4090000080fb004400de0094
:100c1c00004f7800ce409000114798001e4078009d
:100c2c007cfe07001e4090007afe07005e4090009c
:100c3c000080fb004400de00004f7800de40900096
:100c4c00114798001e40780072fe07001e4090006d
:100c5c0070fe07006e4090000080fb004400de0038
:100c6c00004f7800ee409000114798001e4078002d
:100c7c0068fe07001e40900066fe07007e40900054
:100c8c000080fb004400de00004f7800fe40900026
:100c9c00114798001e4078005efe07001e40900031
:100cac005cfe07000e4890000080fb004400de0054
:100cbc00004f78008e489000114798001e40780035
:100ccc0054fe07001e40900052fe07001e48900084
:100cdc000080fb004400de00004f78009e4890002e
:100cec00114798001e4078004afe07001e409000f5
:100cfc0048fe07000ef897000080fb004400de0061
:100d0c00004f78008ef89700114798001e4078002d
:100d1c0040fe07001e4090003efe0700cd62a90079
:100d2c000040eb003bfe070010c0b30039fe07008b
:100d3c0000122a00710020001d00070000000000b6
:100d4c000080fa00000006000200fa00004f780054
:100d5c00cd62a8000040eb002efe07001e40e9000b
:100d6c002cfe0700cd62a9000080fa0000000600ee
:100d7c000000fa00cd62a9000040eb0025fe070040
:100d8c0010c0b30023fe07000080fa00000006002c
:100d9c000000fa00cd62a9000040eb001dfe070028
:100dac0020c0b3001bfe07000080fa000000060004
:020000040000fa
:100dbc00f03fb1000180b10006003500ee030900e0
:100dcc0000000000403fb1000180b100fbff3d007e
:100ddc001000b000203fb000020035000080090078
:080dec000000000000000600f9
:020000040000fa
:100df4000400fa00000f780011079800ffff370085
:020000040000fa
:100e040000080000020000000000000000000000d4
:020000040000fa
:0200000401f009
:04000000ffffff00ff
:020000040000fa
:0200000401f009
:04000800ffffff00f7
:020000040000fa
:0200000401f009
:04000c00820000006e
:020000040000fa
:0200000401f009
:04001000a500000047
:020000040000fa
:0200000401f009
:040014005f00000089
:020000040000fa
:0200000401f009
:04001800f7000000ed
:020000040000fa
:0200000401f009
:04001c00dfff000002
:00000001FF
