:020000040000fa
:080000000002040000000000f2
:020000040000fa
:04000800d40200001e
:020000040000fa
:04000c00d40200001a
:020000040000fa
:04001000d402000016
:020000040000fa
:04001400d402000012
:020000040000fa
:04001800d40200000e
:020000040000fa
:04001c00d40200000a
:020000040000fa
:04002000d402000006
:020000040000fa
:04002400d402000002
:020000040000fa
:04002800d4020000fe
:020000040000fa
:04002c00d4020000fa
:020000040000fa
:04003000d4020000f6
:020000040000fa
:04003400d4020000f2
:020000040000fa
:04003800d4020000ee
:020000040000fa
:04003c00d4020000ea
:020000040000fa
:04004000d4020000e6
:020000040000fa
:04004400d4020000e2
:020000040000fa
:04004800d4020000de
:020000040000fa
:04004c00d4020000da
:020000040000fa
:04005000d4020000d6
:020000040000fa
:04005400d4020000d2
:020000040000fa
:04005800d4020000ce
:020000040000fa
:04005c00d4020000ca
:020000040000fa
:04006000d4020000c6
:020000040000fa
:04006400d4020000c2
:020000040000fa
:04006800d4020000be
:020000040000fa
:04006c00d4020000ba
:020000040000fa
:04007000d4020000b6
:020000040000fa
:04007400d4020000b2
:020000040000fa
:04007800d4020000ae
:020000040000fa
:04007c00d4020000aa
:020000040000fa
:04008000d4020000a6
:020000040000fa
:04008400d4020000a2
:020000040000fa
:04008800d40200009e
:020000040000fa
:04008c00d40200009a
:020000040000fa
:04009000d402000096
:020000040000fa
:04009400d402000092
:020000040000fa
:04009800d40200008e
:020000040000fa
:04009c00d40200008a
:020000040000fa
:0400a000d402000086
:020000040000fa
:0400a400d402000082
:020000040000fa
:0400a800d40200007e
:020000040000fa
:0400ac00d40200007a
:020000040000fa
:0400b000d402000076
:020000040000fa
:0400b400d402000072
:020000040000fa
:0400b800d40200006e
:020000040000fa
:0400bc00d40200006a
:020000040000fa
:0400c000d402000066
:020000040000fa
:0400c400d402000062
:020000040000fa
:0400c800d40200005e
:020000040000fa
:0400cc00d40200005a
:020000040000fa
:0400d000d402000056
:020000040000fa
:0400d400d402000052
:020000040000fa
:0400d800d40200004e
:020000040000fa
:0400dc00d40200004a
:020000040000fa
:0400e000d402000046
:020000040000fa
:0400e400d402000042
:020000040000fa
:0400e800d40200003e
:020000040000fa
:0400ec00d40200003a
:020000040000fa
:0400f000d402000036
:020000040000fa
:0400f400d402000032
:020000040000fa
:0400f800d40200002e
:020000040000fa
:0400fc00d40200002a
:020000040000fa
:04010000d402000025
:020000040000fa
:04010400d402000021
:020000040000fa
:04010800d40200001d
:020000040000fa
:04010c00d402000019
:020000040000fa
:04011000d402000015
:020000040000fa
:04011400d402000011
:020000040000fa
:04011800d40200000d
:020000040000fa
:04011c00d402000009
:020000040000fa
:04012000d402000005
:020000040000fa
:04012400d402000001
:020000040000fa
:04012800d4020000fd
:020000040000fa
:04012c00d4020000f9
:020000040000fa
:04013000d4020000f5
:020000040000fa
:04013400d4020000f1
:020000040000fa
:04013800d4020000ed
:020000040000fa
:04013c00d4020000e9
:020000040000fa
:04014000d4020000e5
:020000040000fa
:04014400d4020000e1
:020000040000fa
:04014800d4020000dd
:020000040000fa
:04014c00d4020000d9
:020000040000fa
:04015000d4020000d5
:020000040000fa
:04020800d40200001c
:020000040000fa
:04020c00d402000018
:020000040000fa
:04021000d402000014
:020000040000fa
:04021400d402000010
:020000040000fa
:04021800d40200000c
:020000040000fa
:04021c00d402000008
:020000040000fa
:04022000d402000004
:020000040000fa
:04022400d402000000
:020000040000fa
:04022800d4020000fc
:020000040000fa
:04022c00d4020000f8
:020000040000fa
:04023000d4020000f4
:020000040000fa
:04023400d4020000f0
:020000040000fa
:04023800d4020000ec
:020000040000fa
:04023c00d4020000e8
:020000040000fa
:04024000d4020000e4
:020000040000fa
:04024400d4020000e0
:020000040000fa
:04024800d4020000dc
:020000040000fa
:04024c00d4020000d8
:020000040000fa
:04025000d4020000d4
:020000040000fa
:04025400d4020000d0
:020000040000fa
:04025800d4020000cc
:020000040000fa
:04025c00d4020000c8
:020000040000fa
:04026000d4020000c4
:020000040000fa
:04026400d4020000c0
:020000040000fa
:04026800d4020000bc
:020000040000fa
:04026c00d4020000b8
:020000040000fa
:04027000d4020000b4
:020000040000fa
:04027400d4020000b0
:020000040000fa
:04027800d4020000ac
:020000040000fa
:04027c00d4020000a8
:020000040000fa
:04028000d4020000a4
:020000040000fa
:04028400d4020000a0
:020000040000fa
:04028800d40200009c
:020000040000fa
:04028c00d402000098
:020000040000fa
:04029000d402000094
:020000040000fa
:04029400d402000090
:020000040000fa
:04029800d40200008c
:020000040000fa
:04029c00d402000088
:020000040000fa
:0402a000d402000084
:020000040000fa
:0402a400d402000080
:020000040000fa
:0402a800d40200007c
:020000040000fa
:0402ac00d402000078
:020000040000fa
:0402b000d402000074
:020000040000fa
:0402b400d402000070
:020000040000fa
:0402b800d40200006c
:020000040000fa
:0402bc00d402000068
:020000040000fa
:0402c000d402000064
:020000040000fa
:0402c400d402000060
:020000040000fa
:0402c800d40200005c
:020000040000fa
:0402cc00d402000058
:020000040000fa
:0402d000d402000054
:020000040000fa
:0402d400d402000050
:020000040000fa
:0402d800d40200004c
:020000040000fa
:0402dc00d402000048
:020000040000fa
:0402e000d402000044
:020000040000fa
:0402e400d402000040
:020000040000fa
:0402e800d40200003c
:020000040000fa
:0402ec00d402000038
:020000040000fa
:0402f000d402000034
:020000040000fa
:0402f400d402000030
:020000040000fa
:0402f800d40200002c
:020000040000fa
:0402fc00d402000028
:020000040000fa
:04030000d402000023
:020000040000fa
:04030400d40200001f
:020000040000fa
:04030800d40200001b
:020000040000fa
:04030c00d402000017
:020000040000fa
:04031000d402000013
:020000040000fa
:04031400d40200000f
:020000040000fa
:04031800d40200000b
:020000040000fa
:04031c00d402000007
:020000040000fa
:04032000d402000003
:020000040000fa
:04032400d4020000ff
:020000040000fa
:04032800d4020000fb
:020000040000fa
:04032c00d4020000f7
:020000040000fa
:04033000d4020000f3
:020000040000fa
:04033400d4020000ef
:020000040000fa
:04033800d4020000eb
:020000040000fa
:04033c00d4020000e7
:020000040000fa
:04034000d4020000e3
:020000040000fa
:04034400d4020000df
:020000040000fa
:04034800d4020000db
:020000040000fa
:04034c00d4020000d7
:020000040000fa
:04035000d4020000d3
:020000040000fa
:10040000af8720000eff20000e01880000000000d2
:10041000000020000000e000020032000001200087
:100420002002880014000700c10007000000e0005f
:1004300003003a00a08422000100200002003700df
:100440000000200001002000810f70000100320038
:1004500014000700000020000000e000020032004d
:10046000000002000000000038250200000000002b
:100470000040da000000fe004440a900a0b92000be
:100480000000e0000300320000002000a00188000e
:100490004440a800000006008a1f78008b1f7800e7
:1004a0000000060091018800800478000000eb0045
:1004b0001a003700e284440032a0b4009905ba0063
:1004c000e284440032a0b4009906ba00e2844400f9
:1004d00032a0b4000006eb00476fde00fd07b2005b
:1004e000636ce10003003a00ebff07000000eb0043
:1004f0000a003700606ce10004003a00005deb0088
:100500008b05e900fdff3e00040037006168e10053
:10051000010032000086eb000b00070019c7ba008b
:100520001905ba000e04e00003003a000a00e000da
:10053000e0ff3a0000000600fe07b2009e018800be
:100540008a047800f5ff3700395dba008b05e900b1
:100550000c003200295dba008b05e900080032006a
:100560000c00e00003003a00e284440032a0b40032
:10057000f5ff370019ddba008b05e900faff3a00f4
:100580008904e800e184440032a0b40000000600c1
:10059000000000000000000000000000000000005b
:1005a00000000000000000000040da000000fe0033
:1005b000ec8747008e1f78006c87570044002000ae
:1005c000041f7800000f78006c87570002afbe0050
:1005d000e1bf9f006c805700cd0807001e00be00e1
:1005e0004f077800cf00b10000000600ec874700fd
:1005f0008e1f780011002000a1bf9f006c8757005c
:10060000002f78006c805700c30807001e00780098
:100610004f077800cf00b10000000600ec874700cc
:100620008e1f7800e20f500034003e00c04380006f
:10063000e10f500003003200e20f500011003a00b9
:100640000c003700032220000300e00001003a0004
:100650000040da002002e200020035002822ef000c
:1006600021e2a8002342ab000d003a002342a8007b
:100670000b003700030020000300e00001003a00f7
:100680000040da000000e200020035000020ef0028
:1006900001e0a8000140ab0001003a000140a800c1
:1006a000820178000b0037003102fb00e10f50009f
:1006b00004003a002322ab00feff3a002411880018
:1006c000030037000120ab00feff3a000400880061
:1006d0008301e9000300e000f3ff3a00e10f50005e
:1006e00003003a002302ab00feff32000c0037008b
:1006f0000100ab00feff3200090037006c87570095
:1007000033002000031f7800000f7800c1bf9f0056
:10071000d2bf9f006c805700810807005fb9970027
:10072000020078004f077800cf00b10000000600fb
:10073000000005000001be001b0007000470a700b8
:1007400003f0a10003f8a30013003a006509b1000b
:1007500010003200090035006928e1000200350070
:1007600001002800000005000000400081804800d2
:100770008502e900fcff3a0000000600f88f420005
:10078000050035008100d1000080d3008502e8001b
:10079000fcff3a00000006008000eb0000000500ae
:1007a0006011b80015023700c70ade00f107b20079
:1007b000f50fb20008003200e1cf42000200320023
:1007c0000170a00024000500810f700001003200bc
:1007d0000408050044000500810f700002003a0083
:1007e000140005008502e9000000400081c04800b7
:1007f000fcff3b000170a000240005006022b8004f
:10080000060220000000d0008180d2000482d200c5
:100810008582d2000000a0000202520083825a00aa
:10082000030031000202420083824a000000a1005e
:100830000603e900f3ff3a000000060007f827006e
:10084000078361000638e10004003a00f707200042
:10085000878361008703710001003a0003f0a20062
:10086000889fbe008a9fbe008c9fbe00470ade00a4
:100870000480a100c71ade000580a100070028003f
:100880000785600087856100f70f20000720e100e1
:100890009e0032000728e1009c003200010678002b
:1008a0000400e000b4003200f707200087806000f9
:1008b0000170a0000500e000c0003200f707200032
:1008c000878161000370a000050652000f003a0006
:1008d0000b50e1000b0032000308e10002003a0077
:1008e0000200e1007e0032000204500083845800c0
:1008f000040031000001fd008101fd008402fd00c3
:100900008a05fd006044b800210037000520e100a1
:1009100005003d000001fd008101fd008402fd0095
:100920008a05fd00050652007a60e10005003500e9
:100930000170a1004722dd00848070008a80700071
:10094000630037006044b800ef02660007ff2f0025
:10095000070666000500e00006003400f083120080
:100960008714dd000511de00071bdd0006017100a4
:100970008519de007060e10005003500090478008b
:1009800082047800030178008001eb0070065600b5
:100990000b50e10003003a00020040008380480051
:1009a0000400370060041400e0841c0002005800ba
:1009b000838058000188a300060032008100d10026
:1009c0000080d3008984d3000884d3000402e800a7
:1009d000270037000178a30025003a000100e0005d
:1009e000030032008186cf00698656000a00370076
:1009f0008c0020000000e00004003a0009007800ac
:100a0000880478000004eb00700252008086cf005a
:100a10000d0646000c06e9007060e1000600350096
:100a20008000780009007800880478000004eb005a
:100a300070065600700252000c00e0000c003400fa
:100a40008c08dd00f00316000703de0086807000ce
:100a50000c00dd00074bde00060070008c4cdd0052
:100a60000743de00868474000c44dd000c02520053
:100a70006120e100200035006101600007002800ce
:100a800087816400f7ff27008783640007037400f1
:100a90000300e0000600320082037300040032000d
:100aa0000000e800e08048000188a3000e003a0042
:100ab000f70f20000720e1004a003d000170a1006f
:100ac0004722dd00810072008a8070000000be00b5
:100ad0004f06be004f05be004f04be0000000600da
:100ae0006000b800faff37008100d1000080d30019
:100af0000402e800eeff3700040178008901740069
:100b0000c20007008a807000f1ff3700180107005b
:100b1000070278000001fd008101fd0014010700bb
:100b200087027800850372000778a3000400320072
:100b30000001fd008101fd0027010700e4ff3700ef
:100b4000850362000768a300080032000b50e10033
:100b500003003200f0ff2f00f1ff2700dcff370019
:100b60000001fd008101fd00d9ff37000468a300ea
:100b7000d7ff3200faff3700f8ff270088836000b4
:100b80000b003a000000e00009003a008303640013
:100b900082837300020032000200be00ccff3700e7
:100ba0000b50e100ceff3a000200be00c8ff370044
:100bb00014002000810064003eff3700f8ff27008a
:100bc0008883610004003a000200e00002003a005d
:100bd0008c007800beff3700150020008301640000
:100be00039ff370001f82700000020008100750060
:100bf000b7ff37000383680007002800070363007e
:100c0000470ade000480a100c71ade000580a100ab
:100c1000f70f20000720e100420032000728e10022
:100c200040003200889fbe008a9fbe008c1f780063
:100c3000f107b200f307b2000400e00064003200e4
:100c40000170a0000500e000680032000370a00001
:100c500085054200eb07b1000204b8000302b800aa
:100c60008484440060854a00020ab80084844400f9
:100c70000a854a00030ab800040545000400330051
:100c80000804d0008984d2000a85d2008b05e900cf
:100c90006158e1003d0035000210200009016100ab
:100ca0000308200089816100f70720008783640022
:100cb00008867300c84cde00c853dd0087847400ca
:100cc0004855de000300e000060032008203760093
:100cd000040032008904e80060054d000a88a30082
:100ce0000c003a00f70f20000758e10044003d00d7
:100cf0000a70a100c75ddd000a8575008a007300d7
:100d0000090078004f0678004f05be004f04be0072
:100d1000000006000a05d1008984d3008b05e80095
:100d2000f0ff3700881f7800060478009000070065
:100d3000070278000001fd008101fd008c00070022
:100d400087027800850372000778a300050032004f
:100d50000001fd008101fd009f0007004f047800a5
:100d600000000600850372000748a300030032005c
:100d7000f0ff2f00f1ff2700f8ff370000002000f0
:100d800001f8270088807000f4ff370088017800a0
:100d90004848dd00808171004848de00c850dd0011
:100da00001007000c850de00060478000b017800d6
:100db0001600070088807000d2ff37000500e000b1
:100dc00005003200170020003a0007009dff3700a1
:100dd00081037000f9ff3a00860078004f06780022
:100de0004f05be004f04be000000050083037100e4
:100df000f9ff3200270020002e00070094ff370083
:100e000001f8270086807000f4ff37000100e00041
:100e100026003200610111007810e10023003c003f
:100e20006022b8007010e1000400350080027800f4
:100e3000010078008000eb00700151000200e0002a
:100e40000900340070031100062add00822ade004a
:100e50008603dd00878272000200de00860bdd0063
:100e6000070070008208de0084817100f4ff270013
:100e70000482620084817100040028008482620080
:100e80006102600005f0a600000006000482710007
:100e9000070032000000e800e08048000000060083
:100ea0000002be006000b800efff37006000b8002d
:100eb00000000600889fbe000004eb006138e100de
:100ec00016003a000100e00008003a00c800de0009
:100ed0004800dd00880020000100e00003003a0027
:100ee000c800de004800dd00680444008184cf00b3
:100ef000e9845400060034008908dd00f083140002
:100f00008703de00878070000900dd0009044400cb
:100f1000610214004f04be00000006000300e00060
:100f200008003a00c811de004811dd0088002000ea
:100f30000300e00003003a00c811de004811dd00a4
:100f4000680444008384cf00e98454000600340020
:100f50008919dd00f08314008713de00878171009a
:100f60000911dd0009044400e1021400e9ff370023
:100f70002700200001f0a70017002000470bde002b
:100f8000f60fb200040032000643e8000a00320007
:100f90004702b3000000060001037800f607b20024
:100fa0000603700002003a000703b30000000600c9
:100fb0008702b3000000060001037800f607b200c4
:100fc00006037000020032000770a0000000060057
:100fd0000760a000000006000478a30004003200af
:100fe0000578a300030032000168a30001003a0065
:100ff0000200be000160a00000000600889fbe0045
:101000008a9fbe0000827000040271000482710099
:10101000260032000004be000200be006011b800cd
:101020006b092000950220000182cf000a003900e0
:101030000541b1000082cf00070039000541b10031
:101040000982cf00040039000541b1000882cf00b9
:10105000010039000541b100054252001200320082
:101060000a003b0082817100610164008100d100af
:101070000080d3008984d3000884d3008b05e80066
:101080000442e800f7ff3a00070037000804440074
:1010900089844c0000004800818048008b05e900ed
:1010a0000442e900f9ff3a00030007004f05be00c3
:1010b0004f04be0000000600810020006180550042
:1010c0000b003d000b00200061fe2f000100e1003d
:1010d0001d00340082817100610164008904d10027
:1010e0000884d3000000e800faff3a0071002000f5
:1010f000610064000300700002006000090032001b
:1011000061044400e0844c000988a5000500320019
:101110008b05e8006808e10002003a008904d1006c
:101120000884d300f20f20000258e10005003d00c2
:10113000c75ddd00f907b2008980750008007800fe
:10114000000006000bf827008b0078000000050067
:101150000000fa00cfb8970068815700c0408000b7
:1011600010007800e60107000080fa000000060089
:101170000b00070063000700130107003b01070095
:101180009500370000000600e08120000000060006
:10119000fdff0700e0408800d04088000000060006
:1011a000ec874700889fbe008a9fbe008c9fbe00d0
:1011b0008e1f780000067800010478001807900060
:1011c0002805900098067800cdb79f00b8059000dc
:1011d0003202be002203be000400be000601be00b3
:1011e0004f18de006011b8008000eb00d0b79f0000
:1011f000e1b79f00f2b79f0083bf9f008004780093
:101200000900e000060032006000b8006011b8007c
:101210000402500085825800060359008783590054
:101220000e00e000020035000d10a100cdb79f00b8
:101230000900e00005003a004fb097000028a30025
:1012400002003a000038a300020032008a00e900e0
:10125000010037008a007800f8815700a2002000c2
:1012600008007800860007000900e00003003a004b
:10127000cfb097000128a300080032000000e90069
:1012800000814500b1c2b3000900e0000100320056
:10129000d1c2b30001497800050037000138a3002e
:1012a000030032000000e90001c2b300817578003c
:1012b000480190000201e9000001510080804500d2
:1012c0004fb297008a0178000c007800cc0107002b
:1012d0009c0090000188a300040032009800900058
:1012e000810f500001003d00010078004f07780099
:1012f0004f06be004f05be004f04be00cf00b10038
:10130000000006000200fa00889fbe008a9fbe000f
:1013100000057800010478000200780018019000b0
:10132000a805900098007800b1bf9f00b804900015
:101330000200e000020035000110a100b1bf9f00d3
:10134000ea815700820020008b0078003002be0046
:101350002003be0008007800490007003fb997004d
:10136000f0006100030032000000e90001c3b30097
:10137000817478003fb99700e800610003003200f3
:101380000000e90001c2b3008174780048019000b8
:101390000201e90000015100808044003fba97003b
:1013a0008b0178000a007800950107009a009000f0
:1013b0000188a3000400320098009000810f5000c3
:1013c00001003d00010078004f05be004f04be0043
:1013d0000080fa0000000600ea874700889fbe00f0
:1013e0008a9fbe008e1f78000004780003007800fa
:1013f0007287570084e2260055c72600049fbe006e
:10140000c3962200030f78006c875700004feb0053
:1014100011059000a1049000910578000200e00001
:10142000020032000207780001003700728757007f
:101430000000e00002003a000e00780003040700fc
:101440000a00e000030035008a0f5000010036005a
:101450000a0078000b02780089017800000178000a
:101460008e00780008007800650107004f077800bb
:101470004f05be004f04be00af00b10000000600e3
:10148000f4874700889fbe008a9fbe008c9fbe00e5
:101490008e1f78000605be000404be0081bf9f00b9
:1014a00082b79f00f3b79f00b0009000e1b79f00a4
:1014b0001301780092b79f009006900040069000bc
:1014c0000c06e9000d00e00001003d001d002000b9
:1014d000efb197000c8041000048eb001e00200097
:1014e0001f0037000c06e9000fb09700cf80de0028
:1014f0006109b900a0b79f00b1b79f00c2b79f00b4
:10150000d3b79f000203be000002be000800be0069
:101510000a01be00ad05070000077800efb0970094
:101520000c80400003c3b300034847008d06e90068
:101530000fb897000000e90080bf9f002fb297000e
:10154000bfb297004fb39700dfb397000800be000b
:101550000a01be00960507000205be000004be0099
:101560000c00e0000d003200e00f5400e08f5c0042
:10157000e00f5d00e08f5d00daff3a000d00e00053
:10158000d8ff3c008fb897000100e0000300340052
:101590001fb197000218a300d2ff3a000e00e0002e
:1015a00002003a00ffb197001340a1000c00780040
:1015b0004f0778004f06be004f05be004f04be0027
:1015c0004f01b100000006000200fa00889fbe0033
:1015d0008a9fbe0080047800010478000200780031
:1015e000180190002805900098007800b1bf9f0076
:1015f000b80590000200e000020035000110a100d3
:10160000b1bf9f00ea815700a20020008a00780045
:101610003002be002003be000800780098ff0700db
:10162000480190000201e90000015100808045005e
:101630003fba97008a01780009007800f00007009f
:10164000990090000188a3000400320098009000e7
:10165000810f500001003d00010078004f05be00e1
:101660004f04be000080fa0000000600fa87470021
:10167000889fbe008a9fbe008c9fbe008e1f780090
:101680008004780001047800820578001801900039
:101690002805900018077800b80090000200e000cc
:1016a000020035000e10a1000100370012002000da
:1016b00070006700e0b79f00090032003b02be00e7
:1016c0002b03be00e00f5200e08f5a00e00f5b00da
:1016d000e08f5b00020032008a86e90001003700db
:1016e0008a067800e8026700f5b79f000100320023
:1016f0008d06e9003b02be002b03be00e4af9f0055
:10170000f5af9f0086b79f0097b79f0048069000ef
:101710000c06e9000c8040000048eb00efb2970097
:101720007fb297008903780081047800d8af9f00ca
:10173000020478008bbf9f008a057800034578007b
:101740002a0037000c06e9006fab97006f006300ba
:10175000e90f500002003c000003b0000100370018
:101760007005b0000a03fb001604b100f90f530026
:101770000c003e00000378000650a0001606b100e1
:10178000f90f530007003e00b4b79f00a5b79f00b4
:10179000c7b79f007c030700cfb39700afb2970095
:1017a0003fb2970080747e000804e9008d06e900ce
:1017b0006fa89700ffa897000fb197009fb19700ff
:1017c000460020008301d1000281d3008180d30034
:1017d0000080d3000603e900faff3a00e0af9f0063
:1017e000f1af9f0082b79f0093b79f00e10f5600b3
:1017f0000f0036006fa89700ffa897000fb1970061
:101800009fb19700e00f5000e08f5800e00f5900a3
:10181000e08f5900cbff3a000800e000c9ff3c0010
:101820000d00e000020034000e18a300c5ff3a00ce
:1018300089007800f4b79f00870478005fac9700b8
:101840008a4178000b0578008fbd97000500e00005
:10185000100032003b02be002b03be00e4af9f002d
:10186000f5af9f0086b79f0097b79f00e00f52002b
:10187000e08f5a00e00f5b00e08f5b000500320054
:101880000c06e90083707e000c06e90000c3b3007b
:1018900080707e00ffb297000500e0000300320078
:1018a0000c06e90000c2b30080707e004801900081
:1018b0000201e9000c0151008c8040000e0278000a
:1018c0008a017800090078004d0007009900900017
:1018d0000188a3000400320098009000810f50009e
:1018e00001003d00010078004f0778004f06be0060
:1018f0004f05be004f04be00af01b100000006005e
:101900000200fa00881f780000047800e2bf9f0000
:101910006481570008007800ec01070098009000ef
:101920000148a300010032000080eb004f04780062
:101930000080fa0000000600889fbe008a1f780021
:10194000800478004900900002047800800f540061
:101950000100360000047800080178006a85440020
:101960001a0078004f0207001a004400000d7800aa
:10197000e8844400990c14000048eb004f057800ff
:101980004f04be00000006001000780023fb370063
:10199000900190000388a30001003200e6ff3700a9
:1019a0000348a30001003a00f7ff0700000006000b
:1019b000889fbe008a1f780080047800490090004c
:1019c00002047800800f5400010036000004780003
:1019d000080178006a8544001a0078003102070087
:1019e0001a004400000d7800e8844400990c1400ab
:1019f0000048eb004f0578004f04be0000000600d1
:101a0000f2874700889fbe008a9fbe008c9fbe0061
:101a10008e1f7800800478000105780002047800a9
:101a2000830578006107620002003a008b0f5400c2
:101a300008003900080178008a0078000900780061
:101a4000d3ff07008b0f540002003900880578008f
:101a50001e003700088655000c017800f00f560074
:101a60000100360002012000010220007e805700a4
:101a7000130207008c0678000500370002012000e1
:101a8000fe80570009007800c1ff0700f08656006d
:101a9000ef8f5600f9ff3e004461de0000ff2f008b
:101aa0000091b90002014600fe805700090078004d
:101ab000b7ff07000e00e00004003a0008017800bc
:101ac0008a00780009007800b1ff07000b00780059
:101ad0004f0778004f06be004f05be004f04be0002
:101ae0002f01b10000000600000005000000050005
:101af00000000500000178000040eb008080fb0042
:101b0000818040000386200063c278000404e00066
:101b100003003a001086200060c078000000060034
:101b200092017800934f520004003a001086200082
:101b300060c078000309e800010037000040e800b9
:101b4000ea4f5000edff360000000600f687470020
:101b5000889fbe008a9fbe008c9fbe008e1f7800ab
:101b6000800478000104780083057800040678007a
:101b70000000eb00c0b79f008080eb00d1b79f0052
:101b8000e0b79f00f2b79f000008200080bf9f00d1
:101b900098007800010078000005eb000100370094
:101ba0000a05e800304178000204e000030032003a
:101bb00053c2b300834f5100f9ff3a000a00e0001e
:101bc000040032000a0178000900780070ff070065
:101bd000180c45001807780050c2b3009e4f100043
:101be00033013a000e07e8000e0c780010003700b1
:101bf000cfb097000100a0000b003700cfb09700d6
:101c00000110a00008003700cfb097000120a0000d
:101c100005003700cfb097000130a0000200370068
:101c2000cfb097000140a000c1b79f00000ce800b2
:101c30001800780090407800b2c2b30082cf500004
:101c4000f1ff320007003c0002c2b30082cf500017
:101c5000f0ff320032c2b30082cf500007003a00da
:101c6000efff3700d2c2b30082cf5000e0ff320056
:101c700002c3b30082cf5000e0ff3200a2c2b30023
:101c800082cf50000d003a00000ce8001c80e900f3
:101c9000000e780010007800e0b79f000000e00020
:101ca0000f003d00cfb097000100a200c1b79f0018
:101cb0000000ea00e0b79f000900370005020700b6
:101cc000e0b79f0001003700000ce8001800780022
:101cd0009000fb000103b100e98f5000faff3600cd
:101ce0004fb097000008a300020032000010a100ce
:101cf000c0b79f0018007800e1c2b30090cf100079
:101d000016003a008000eb00d1b79f000000e80009
:101d1000000c7800a1c2b30090cf100006003a007a
:101d2000000ce8001c80e900000e7800100078002c
:101d3000d0b79f0009003700e6010700d0b79f0029
:101d400001003700000ce800180078009000fb004c
:101d50000103b100e98f5000faff36000800780057
:101d600064ff070080467800180078001000fb0030
:101d7000fe01070091062000810f5000380032005c
:101d800012003c0041062000810f50003400320058
:101d90000a003c0011062000810f50002000320094
:101da00031062000810f50009a00320051022000bd
:101db000810f5000ae003a00a700370071062000e6
:101dc000810f5000aa003c0082003700010720006c
:101dd000810f50005c00320007003c00e10620004b
:101de000810f500074003200f1062000810f500076
:101df0009f003a003900370051072000810f500042
:101e00002700320081072000810f5000420032007d
:101e100031072000810f500095003a0085003700ff
:101e20008d80fb000c01780000fe2f000f004000a9
:101e3000dc0107000000e0009c0032001800780080
:101e4000000ce8009041780002fe2f000f014100d5
:101e5000f88057000900780024ff07000e003700c3
:101e60008d80fb008c0178001200200000fe2f0006
:101e70000f004000ea0107000000e0008b00320084
:101e8000180ce80002fe2f000f014100f8805700f7
:101e900009007800c2fc07000005450084003700f7
:101ea0008d80fb008c0178000001eb0000fe2f000c
:101eb0000f004000da0107000000e0007b00320064
:101ec000180ce80002fe2f000f014100f8805700b7
:101ed00009007800bcfd0700efff37008d80fb0094
:101ee0008c0178000001eb0000fe2f000f00400085
:101ef000cb0107000000e0006c003200180ce80085
:101f000002fe2f000f014100f88057000900780001
:101f1000fcfc0700e0ff37008d80fb008c0178009f
:101f20000001eb0000fe2f000f004000bc01070085
:101f30000000e0005d00320018007800000ce800ae
:101f400090417800160037008c0178000001eb000a
:101f5000010f200000fe2f000f004000b00107001d
:101f60000000e00051003200180ce8000fb09700ac
:101f70009fb097002fb19700bfb19700e00f5000be
:101f8000e08f5800e00f5900e08f590003003a003d
:101f90008001eb00a28520004000370083c7b3001a
:101fa00002fe2f000f014100f88057000900780061
:101fb000aefd0700b8ff37000b0145008d80fb0028
:101fc0008c01780000fe2f000f004000ed0107009b
:101fd000360037008d80fb000c01780000fe2f00da
:101fe0000f0040006f0107000000e0002f003200ea
:101ff00018007800000ce8009041780002fe2f00e5
:102000000f014100f880570009007800b7fe070073
:10201000a1ff370000c8b30080cf560023003a006c
:10202000180ce8001c80e900000e780010407800d1
:102030000d00370000c8b30080cf56001b003a00e7
:10204000180ce8001c80e900000e78008001eb000d
:10205000100178001100370001c8b30081cf56008d
:1020600012003a00180ce800e0df9f00080037007b
:1020700050c2b300e0df9f000e0c78000000eb00c0
:10208000c0b79f00e0b79f008080eb00d1b79f00f2
:1020900013002000e2fd2f000f014100f8805700df
:1020a00009007800ccfc07007bff3700180ce80023
:1020b0000a0078004f0778004f06be004f05be00ab
:1020c0004f04be006f01b100000006008200fa005c
:1020d000889fbe008a1f780000057800820478007f
:1020e000c13f9f000004eb00100037000902780098
:1020f00088017800a2f72f000f01410081f72f001f
:102100008f8040000a00780090fe07000800400021
:10211000880f500004003d00b0042000b043880048
:102120000084eb0004003700000478004f3897006b
:102130001004e000edff3a00080078004f05780039
:102140004f04be000080fa0000000600889fbe0019
:102150008a1f780000047800010578000000eb0079
:102160000800e0001a003200180090000058a30098
:102170000c003200ea04440068009000990f10003f
:1021800008003600b80990000001eb0082007800da
:1021900008007800030001000080eb001900e00057
:1021a0000b003200740044000008eb006c00440097
:1021b0000008eb006a0044000008eb000000eb00a0
:1021c0000a00e000020032001800780007f907005a
:1021d0004f0578004f04be0000000600889fbe0037
:1021e0008a1f78000004be000000eb000800e00039
:1021f00029003200180090000058a300120032009d
:102200006a054400680090009a0f1000080036002c
:10221000b80990000001eb00820078000800780007
:10222000030001000080eb001a00e0001a003200f9
:10223000740044000008eb006c0044000008eb0050
:102240006a0044000008eb00780a90000810900033
:10225000800f5200060031000002520011002000e1
:10226000cfa2de00612bb90018007800d0f807007b
:1022700000022000080040000008eb007e0044003f
:102280000008eb000000eb000900e0000200320053
:1022900018007800d5f807004f0578004f04be00fd
:1022a000000006008001780002003700b159780074
:1022b0000201e9000200e000fcff3a000000060015
:1022c000889fbe008a9fbe00800478000200e00064
:1022d0005a00320001407800814c7800828144002d
:1022e000f1f99f00e20f510054003600914498002c
:1022f000a1449800e1f99f00d1f99f00e60f510039
:102300004e003600b1449800c1f99f00e80f51001b
:102310004a0036000905ea00630565000a844400a6
:102320000a055100c1ff2f00010565000080fb0078
:102330008000eb0012102000131020006e01070037
:10234000008cbe000a01440060b99f0071b99f0073
:10235000e80f550039003600200498003104980039
:10236000400498005104980020b99f0031b99f00a3
:1023700040b99f0051b99f00f80f55002f0036005b
:102380006004980071049800000c9800110c9800eb
:10239000200c9800310c9800400c9800510c9800cb
:1023a00020b19f0031b19f0040b19f0051b19f000b
:1023b00060b19f0071b19f0000b99f0011b99f00eb
:1023c00064016400780141000204440002055500e4
:1023d0006011b8000203be000002be000403be008c
:1023e0006022b80000007200818072000201730058
:1023f000838173000f00370008027800009abe0046
:10240000029abe00009abe000292be00000c980024
:10241000110c9800220c9800330c9800400c980086
:10242000510c9800620c9800730c98000a02b100dd
:102430000802b000ff0f5500efff3e0009007800d2
:102440004f05be004f04be0000000600800078006b
:10245000040037003104e00002003a00000051009f
:1024600000000600010178000108a300f9ff3a000e
:102470008101780031017800f4ef2f000202420060
:102480000281ea00020162000408280004016100e0
:10249000f7ff320083007800010178003104e0008a
:1024a000fdff3a00000051000000060080007800a7
:1024b0001000200002022000828f50000400320031
:1024c000e9805000e48f5000010036000000eb006e
:1024d00000000600889fbe008a1f780080047800f4
:1024e0000904780088047800394578000a00fb0068
:1024f000eeff07000000e000f9ff3a00b0c2b300b1
:10250000804f550005003200d0c2b3008000eb00c0
:10251000804f550005003a00020037008000eb00b4
:1025200001003700110020000804e8000000eb0063
:10253000030037006a02b900020052000003b00035
:102540003801fb0003fd2f0082814100e98f51001b
:10255000f8ff36000100e00001003a000000ea0048
:102560004f0578004f04be0000000600f1fb2f006d
:1025700080804000f98f500001003e000050a00014
:1025800000000600f9ff3700f1f92f0080804000bd
:10259000f98f500001003e00f005b2000000060077
:1025a000f9ff3700881f7800000478000008200039
:1025b000808f50001700350010082000808f5000d9
:1025c0000b00340030082000808f500011003a00ca
:1025d0009200780068805000000978003002be0048
:1025e0002003be00049cbe000694be000700370016
:1025f0009202780064805200000978001000be004a
:102600009e000700009cbe000294be001000200047
:10261000010037000000eb004f04780000000600c6
:1026200084082000848f50001d0032000d003c0003
:1026300014082000848f50002700320002003c0064
:10264000040820000400370024082000848f500074
:102650002a00320044082000848f500048003a00cd
:102660003b003700040a2000848f50002c00320009
:1026700004003c0004092000848f500040003a0010
:102680002d003700020c2000828f50001e00320007
:10269000020f2000828f500039003a0030003700ce
:1026a0009380e9000200e000050032008109780013
:1026b0001102fb00cfa2de00612bb9002d00370014
:1026c00081097800114278000482fb008002eb004f
:1026d0006033b8002700370013027800e40052008e
:1026e0000200e0000a003200810978001102be00f9
:1026f0004fabde00860378001e003700930278009f
:10270000e88052000e00370093027800e480520007
:10271000810978001102be006033b800150037004f
:102720009380e9008109780011027800cfa2de00d1
:10273000612bb9000f00370013037800e800530045
:10274000810978003102be002103be000900370074
:102750009380e9000200e00002003200f1ff370040
:102760009380e90081097800110278008002eb0073
:102770006033b8000498be000690be00100005004b
:102780000000050044082000848f5000270032001c
:102790000a003c0014082000848f50001c00320006
:1027a00024082000848f50002600320004082000f6
:1027b000848f50002c003a001c00370004092000d0
:1027c000848f50001f00320004003c008408200069
:1027d000848f500024003a0007003700040a2000cc
:1027e000848f500011003200040c2000848f5000b0
:1027f0001d003a00060037009380e9008109780047
:1028000091007800010878008248780015003700b0
:102810009380e90081097800910078000108780030
:10282000cf91de008288be000e0037009380e90061
:10283000810978009100780001087800820878000a
:10284000080037009380e900810978009100780042
:10285000010878006112b900612bb9008498be00ac
:102860008690be0010000500000005000000060074
:1028700047fa0700fdff0700fcff370081037800df
:10288000c9f707000001be006000b8000478a3008b
:1028900013003a006220e10015003e000d003900ef
:1028a0008301d1000281d3008180d3008301d10054
:1028b0000281d3008180d3008301d1000281d30043
:1028c0008180d3000538b000c42add00f300b200d7
:1028d0008381720007f0a70003f0a000000006004b
:1028e00083ff2700020020006110b900f9ff3700c4
:1028f00003ff2700f7ff3700020ab900001bb900e9
:102900000200b80081004200810043000000060080
:1029100000c0da000000060000c0da000000060077
:1029200000c0da0000000600889fbe008a9fbe003b
:1029300030044200b0844a0030054b0090854b00c3
:102940006000b1000898be000a90be000440e1009b
:1029500005c8e10006d0e10007d8e100020031001f
:10296000680040001008e8004f05be004f04be009c
:1029700000000600889fbe008a9fbe003004be0093
:102980002005be000418540005985c0006185d0080
:1029900007985d00110020000440e10005c8e10037
:1029a00006d0e10007d8e100010039008000eb000b
:1029b000108810004f05be004f04be000000060046
:1029c000f4874700889fbe008a9fbe008c9fbe0090
:1029d0008e1f7800d0b79f00e1b79f00f2b79f002d
:1029e00083bf9f000605be000404be00cfae970063
:1029f0000000eb00c0b79f00b0b79f00a0b79f00da
:102a000090b79f0080b79f00000678004fb09700f6
:102a1000000140000000e00006003d003c0007000f
:102a20000f074700450007000f004000beff0700ea
:102a300005003700360007000f0747003f0007007a
:102a40000f004000cbff07004fb797000e00e000db
:102a50000c0035005fb29700efb297007fb397008c
:102a60008fbb970010002000010020006011b8000b
:102a7000000272008182720002037300838373007c
:102a80001c0007000c06e80001042000810f56001e
:102a9000deff3a000e00e00005003d000802be0027
:102aa0000a03be0000fe2f000f0040009eff07003b
:102ab0000d00e00005003a000fb297009fb29700aa
:102ac0002fb39700bfb397000a0007005fb09700cd
:102ad000efb097007fb197008fb997004f0778004c
:102ae0004f06be004f05be004f04be004f01b100af
:102af00000000600010007000000060094b79f00d8
:102b0000a5b79f00b6b79f00c7b79f00000006009b
:102b10009fb097004f08de0002017000a2b79f002f
:102b20000fb097004f01de008180400081007100ee
:102b300091b79f000efe2f0000000600de00780017
:102b40004f09de00000040000000710080b79f00c8
:102b50006fa897004f01de0081804000010f7100d7
:102b60000e0007004f3ade00000040000400700035
:102b7000e0af9f00090007000402420085824a007e
:102b800006034b0087834b00dcff07000802be00f2
:102b90000a03be0000fe2f00000006001fb29700cf
:102ba000afb297003fb39700cfb397000000060085
:102bb000881f780018002000881f780080ff070019
:102bc0008f87e9004f04780000000600801feb00ab
:102bd0007bff07008f87e90000000600889fbe008a
:102be0008a9fbe00e00f5000e08f5800e00f5900b0
:102bf000e08f59000c003d006044b8006055b800fb
:102c00000000540081805c0002015d0083815d0052
:102c1000180020001500070008003d0018000700fc
:102c20000004eb00050037000004eb000f00070074
:102c300002003d001200070018002000dcff070022
:102c40000800e000060032006022b8006033b800df
:102c50000000520081805a0002015b0083815b000a
:102c60004f05be004f04be0000000600e00f5200fa
:102c7000e08f5a00e00f5b00e08f5b000000060071
:102c80006044b8006055b8000402540085825c00be
:102c900006035d0087835d0000000600889fbe007c
:102ca0008a9fbe008c1f7800e00f5000e08f580014
:102cb000e00f5900e08f59000d003d006044b8005e
:102cc0006055b8000000540081805c0002015d0086
:102cd00083815d001c0020000820e10009a8e100bc
:102ce0000ab0e1000bb8e1000d003d00080037001c
:102cf0000006eb00e00f5200e08f5a00e00f5b008f
:102d0000e08f5b0006003d006044b8006055b800ed
:102d10000402540085825c0006035d0087835d0029
:102d2000aaff07000c00e000060032006022b80095
:102d30006033b8000000520081805a0002015b003d
:102d400083815b004f0678004f05be004f04be0034
:042d50000000060079
:020000040000fa
:102d540035080000f708000004080000c608000059
:102d6400880900009508000056090000180a0000b0
:102d740024090000e5090000a50a0000b1090000cb
:102d8400700a0000300b00003a0a0000f90a000043
:102d9400b70b0000c00a00007d0b0000390c0000d6
:102da400400b0000fb0b0000b60c0000bb0b000046
:102db400740c00002c0d00002f0c0000e60c000029
:102dc4009c0d00009c0c0000510d0000040e00003e
:102dd400020d0000b30d0000640e00005e0d000043
:102de4000d0e0000ba0e0000b20d00005e0e0000d1
:102df400080f0000fc0d0000a50e00004c0f0000a1
:102e04003d0e0000e10e0000850f0000720e000070
:102e1400140f0000b30f00009d0e00003b0f0000d4
:102e2400d70f0000be0e0000570f0000f00f000087
:102e3400d20e0000680f0000fd0f0000dc0e000041
:102e44006e0f0000ff0f0000da0e0000680f000094
:102e5400f60f0000cd0e0000570f0000e10f000038
:102e6400b40e00003b0f0000c10f0000900e0000e4
:102e7400140f0000960f0000620e0000e10e000027
:102e8400600f0000280e0000a50e0000200f0000b7
:102e9400e50d00005e0e0000d50e0000970d000049
:102ea4000d0e0000820e0000400d0000b30d000066
:102eb400250e0000e10c0000510d0000bf0d0000c4
:102ec400790c0000e60c0000520d0000090c000013
:102ed400740c0000de0c0000930b0000fb0b0000e0
:102ee400630c0000160b00007d0b0000e30b0000d8
:102ef400940a0000f90a00005d0b00000d0a0000ae
:102f0400700a0000d40a000082090000e5090000ec
:102f1400470a0000f408000056090000b809000040
:102f240065080000c608000027090000d407000057
:102f3400350800009608000043070000a4070000bd
:102f440005080000b2060000140700007607000020
:102f54002306000085060000e80600009605000030
:102f6400fa0500005d0600000d0500007205000072
:102f7400d705000088040000ee040000540500009a
:102f8400070400006f040000d80400008c03000054
:102f9400f60300006104000018030000840300002d
:102fa400f1030000ab0200001a03000089030000d3
:102fb40045020000b70200002a030000e9010000f6
:102fc4005d020000d3020000950100000d02000024
:102fd400850200004b010000c6010000420200000f
:102fe4000a0100008901000009020000d500000068
:102ff40057010000da010000aa0000002f010000c0
:10300400b60100008a000000130100009e010000c8
:103014007500000002010000900100006b00000038
:10302400fc0000008e0100006d00000002010000a1
:10303400980100007a00000013010000ad010000b7
:10304400930000002f010000cd010000b700000034
:1030540057010000f8010000e500000089010000ac
:103064002e0200001f010000c60100006e020000d5
:10307400620100000d020000b8020000b00100006f
:103084005d0200000c03000007020000b70200000c
:1030940069030000660200001a030000ce0300006a
:1030a400ce020000840300003b0400003e03000045
:1030b400f6030000af040000b50300006f04000035
:1030c4002a05000031040000ee040000ab050000f6
:1030d400b304000072050000300600003a05000049
:1030e400fa050000ba060000c505000085060000c8
:1030f400460700005306000014070000d50700002f
:10310400e2060000a4070000660800007307000040
:1031140035080000f708000004080000c608000095
:10312400880900009508000056090000180a0000ec
:1031340024090000e5090000a50a0000b109000007
:10314400700a0000300b00003a0a0000f90a00007f
:10315400b70b0000c00a00007d0b0000390c000012
:10316400400b0000fb0b0000b60c0000bb0b000082
:10317400740c00002c0d00002f0c0000e60c000065
:103184009c0d00009c0c0000510d0000040e00007a
:10319400020d0000b30d0000640e00005e0d00007f
:1031a4000d0e0000ba0e0000b20d00005e0e00000d
:1031b400080f0000fc0d0000a50e00004c0f0000dd
:1031c4003d0e0000e10e0000850f0000720e0000ad
:1031d400140f0000b30f00009d0e00003b0f000011
:1031e400d70f0000be0e0000570f0000f00f0000c4
:1031f400d20e0000680f0000fd0f0000dc0e00007e
:103204006e0f0000ff0f0000da0e0000680f0000d0
:10321400f60f0000cd0e0000570f0000e10f000074
:10322400b40e00003b0f0000c10f0000900e000020
:10323400140f0000960f0000620e0000e10e000063
:10324400600f0000280e0000a50e0000200f0000f3
:10325400e50d00005e0e0000d50e0000970d000085
:103264000d0e0000820e0000400d0000b30d0000a2
:10327400250e0000e10c0000510d0000bf0d000000
:10328400790c0000e60c0000520d0000090c00004f
:10329400740c0000de0c0000930b0000fb0b00001c
:1032a400630c0000160b00007d0b0000e30b000014
:1032b400940a0000f90a00005d0b00000d0a0000ea
:1032c400700a0000d40a000082090000e509000029
:1032d400470a0000f408000056090000b80900007d
:1032e40065080000c608000027090000d407000094
:1032f400350800009608000043070000a4070000fa
:1033040005080000b206000014070000760700005c
:103314002306000085060000e8060000960500006c
:10332400fa0500005d0600000d05000072050000ae
:10333400d705000088040000ee04000054050000d6
:10334400070400006f040000d80400008c03000090
:10335400f603000061040000180300008403000069
:10336400f1030000ab0200001a030000890300000f
:1033740045020000b70200002a030000e901000032
:103384005d020000d3020000950100000d02000060
:10339400850200004b010000c6010000420200004b
:1033a4000a0100008901000009020000d5000000a4
:1033b40057010000da010000aa0000002f010000fc
:1033c400b60100008a000000130100009e01000005
:1033d4007500000002010000900100006b00000075
:1033e400fc0000008e0100006d00000002010000de
:1033f400980100007a00000013010000ad010000f4
:10340400930000002f010000cd010000b700000070
:1034140057010000f8010000e500000089010000e8
:103424002e0200001f010000c60100006e02000011
:10343400620100000d020000b8020000b0010000ab
:103444005d0200000c03000007020000b702000048
:1034540069030000660200001a030000ce030000a6
:10346400ce020000840300003b0400003e03000081
:10347400f6030000af040000b50300006f04000071
:103484002a05000031040000ee040000ab05000032
:10349400b304000072050000300600003a05000085
:1034a400fa050000ba060000c50500008506000004
:1034b400460700005306000014070000d50700006b
:1034c400e2060000a407000066080000730700007d
:1034d400350800007c0f0000ff0f0000cb0e000039
:1034e4004e0f0000d10f00009d0e0000200f0000c1
:1034f400a20f00006f0e0000f10e0000740f000018
:10350400400e0000c30e0000450f0000120e000024
:10351400940e0000170f0000e30d0000660e00007b
:10352400e90e0000b50d0000380e0000ba0e0000d0
:10353400870d0000090e00008c0e0000580d0000dd
:10354400db0d00005d0e00002a0d0000ac0d000034
:103554002f0e0000fb0c00007e0d0000010e000089
:10356400cd0c0000500d0000d20d00009f0c000097
:10357400210d0000a40d0000700c0000f30c0000ed
:10358400760d0000420c0000c40c0000470d000042
:10359400130c0000960c0000190d0000e50b000050
:1035a400680c0000ea0c0000b70b0000390c0000a6
:1035b400bc0c0000880b00000b0c00008e0c0000fb
:1035c4005a0b0000dd0b00005f0c00002c0b000008
:1035d400ae0b0000310c0000fd0a0000800b00005f
:1035e400020c0000cf0a0000510b0000d40b0000b5
:1035f400a00a0000230b0000a60b0000720a0000c2
:10360400f50a0000770b0000440a0000c60a000017
:10361400490b0000150a0000980a00001a0b00006c
:10362400e7090000690a0000ec0a0000b80900007c
:103634003b0a0000be0a00008a0900000d0a0000cf
:103644008f0a00005c090000de090000610a000026
:103654002d090000b0090000320a0000ff08000034
:1036640081090000040a0000d0080000530900008a
:10367400d6090000a208000025090000a7090000df
:1036840074080000f60800007909000045080000ed
:10369400c80800004b090000170800009908000042
:1036a4001c090000e80700006b080000ee08000099
:1036b400ba0700003d080000bf0800008c070000a6
:1036c4000e080000910800005d070000e0070000fc
:1036d400630800002f070000b20700003408000050
:1036e400010700008307000006080000d20600005e
:1036f40055070000d7070000a406000026070000b5
:10370400a907000075060000f80600007b0700000a
:1037140047060000ca0600004c0700001906000016
:103724009b0600001e070000ea0500006d0600006d
:10373400ef060000bc0500003e060000c1060000c4
:103744008d05000010060000930600005f050000d0
:10375400e20500006406000031050000b305000026
:10376400360600000205000085050000070600007b
:10377400d404000056050000d9050000a50400008b
:1037840028050000ab05000077040000fa040000df
:103794007c05000049040000cb0400004e05000035
:1037a4001a0400009d04000020050000ec03000042
:1037b4006e040000f1040000bd030000400400009a
:1037c400c30400008f0300001204000094040000ee
:1037d40061030000e30300006604000032030000fc
:1037e400b503000038040000040300008703000050
:1037f40009040000d602000058030000db030000a7
:10380400a70200002a030000ac03000079020000b4
:10381400fb0200007e0300004a020000cd0200000b
:10382400500300001c0200009f020000210300005e
:10383400ee01000070020000f3020000bf0100006e
:1038440042020000c40200009101000013020000c3
:103854009602000062010000e50100006802000019
:1038640034010000b7010000390200000601000025
:10387400880100000b020000d70000005a0100007c
:10388400dc010000a90000002b010000ae010000d3
:103894007a0000007c0f0000ff0f0000cb0e000038
:1038a4004e0f0000d10f00009d0e0000200f0000fd
:1038b400a20f00006f0e0000f10e0000740f000054
:1038c400400e0000c30e0000450f0000120e000061
:1038d400940e0000170f0000e30d0000660e0000b8
:1038e400e90e0000b50d0000380e0000ba0e00000d
:1038f400870d0000090e00008c0e0000580d00001a
:10390400db0d00005d0e00002a0d0000ac0d000070
:103914002f0e0000fb0c00007e0d0000010e0000c5
:10392400cd0c0000500d0000d20d00009f0c0000d3
:10393400210d0000a40d0000700c0000f30c000029
:10394400760d0000420c0000c40c0000470d00007e
:10395400130c0000960c0000190d0000e50b00008c
:10396400680c0000ea0c0000b70b0000390c0000e2
:10397400bc0c0000880b00000b0c00008e0c000037
:103984005a0b0000dd0b00005f0c00002c0b000044
:10399400ae0b0000310c0000fd0a0000800b00009b
:1039a400020c0000cf0a0000510b0000d40b0000f1
:1039b400a00a0000230b0000a60b0000720a0000fe
:1039c400f50a0000770b0000440a0000c60a000054
:1039d400490b0000150a0000980a00001a0b0000a9
:1039e400e7090000690a0000ec0a0000b8090000b9
:1039f4003b0a0000be0a00008a0900000d0a00000c
:103a04008f0a00005c090000de090000610a000062
:103a14002d090000b0090000320a0000ff08000070
:103a240081090000040a0000d008000053090000c6
:103a3400d6090000a208000025090000a70900001b
:103a440074080000f6080000790900004508000029
:103a5400c80800004b09000017080000990800007e
:103a64001c090000e80700006b080000ee080000d5
:103a7400ba0700003d080000bf0800008c070000e2
:103a84000e080000910800005d070000e007000038
:103a9400630800002f070000b2070000340800008c
:103aa400010700008307000006080000d20600009a
:103ab40055070000d7070000a406000026070000f1
:103ac400a907000075060000f80600007b07000047
:103ad40047060000ca0600004c0700001906000053
:103ae4009b0600001e070000ea0500006d060000aa
:103af400ef060000bc0500003e060000c106000001
:103b04008d05000010060000930600005f0500000c
:103b1400e20500006406000031050000b305000062
:103b240036060000020500008505000007060000b7
:103b3400d404000056050000d9050000a5040000c7
:103b440028050000ab05000077040000fa0400001b
:103b54007c05000049040000cb0400004e05000071
:103b64001a0400009d04000020050000ec0300007e
:103b74006e040000f1040000bd03000040040000d6
:103b8400c30400008f03000012040000940400002a
:103b940061030000e3030000660400003203000038
:103ba400b50300003804000004030000870300008c
:103bb40009040000d602000058030000db030000e3
:103bc400a70200002a030000ac03000079020000f1
:103bd400fb0200007e0300004a020000cd02000048
:103be400500300001c0200009f020000210300009b
:103bf400ee01000070020000f3020000bf010000ab
:103c040042020000c40200009101000013020000ff
:103c14009602000062010000e50100006802000055
:103c240034010000b7010000390200000601000061
:103c3400880100000b020000d70000005a010000b8
:103c4400dc010000a90000002b010000ae0100000f
:103c54007a0000007c0f0000fc0000008e010000d0
:103c64006b000000fc0000008e0100006b000000ef
:103c7400fc0000008e0100006b000000fc0000004e
:103c84008e0100006b000000fc0000008e010000ab
:103c94006b000000fc0000008e0100006b000000bf
:103ca400fc0000008e0100006b000000fc0000001e
:103cb4008e0100006b000000fc0000008e0100007b
:103cc4006b000000fc0000008e0100006b0000008f
:103cd400fc0000008e0100006b000000fc000000ee
:103ce4008e0100006b000000fc0000008e0100004b
:103cf4006b000000fc0000008e0100006b0000005f
:103d0400fc0000008e0100006b000000fc000000bd
:103d14008e0100006b000000fc0000008e0100001a
:103d24006b000000fc0000008e0100006b0000002e
:103d3400fc0000008e0100006b000000fc0000008d
:103d44008e0100006b000000fc0000008e010000ea
:103d54006b000000fc0000008e0100006b000000fe
:103d6400fc0000008e0100006b000000fc0000005d
:103d74008e0100006b000000fc0000008e010000ba
:103d84006b000000fc0000008e0100006b000000ce
:103d9400fc0000008e0100006b000000fc0000002d
:103da4008e0100006b000000fc0000008e0100008a
:103db4006b000000fc0000008e0100006b0000009e
:103dc400fc0000008e0100006b000000fc000000fd
:103dd4008e0100006b000000fc0000008e0100005a
:103de4006b000000fc0000008e0100006b0000006e
:103df400fc0000008e0100006b000000fc000000cd
:103e04008e0100006b000000fc0000008e01000029
:103e14006b000000fc0000008e0100006b0000003d
:103e2400fc0000008e0100006b000000fc0000009c
:103e34008e0100006b0000006d0f0000ff0f0000fa
:103e4400dc0e00006d0f0000ff0f0000dc0e000010
:103e54006d0f0000ff0f0000dc0e00006d0f00006e
:103e6400ff0f0000dc0e00006d0f0000ff0f0000cc
:103e7400dc0e00006d0f0000ff0f0000dc0e0000e0
:103e84006d0f0000ff0f0000dc0e00006d0f00003e
:103e9400ff0f0000dc0e00006d0f0000ff0f00009c
:103ea400dc0e00006d0f0000ff0f0000dc0e0000b0
:103eb4006d0f0000ff0f0000dc0e00006d0f00000e
:103ec400ff0f0000dc0e00006d0f0000ff0f00006c
:103ed400dc0e00006d0f0000ff0f0000dc0e000080
:103ee4006d0f0000ff0f0000dc0e00006d0f0000de
:103ef400ff0f0000dc0e00006d0f0000ff0f00003c
:103f0400dc0e00006d0f0000ff0f0000dc0e00004f
:103f14006d0f0000ff0f0000dc0e00006d0f0000ad
:103f2400ff0f0000dc0e00006d0f0000ff0f00000b
:103f3400dc0e00006d0f0000ff0f0000dc0e00001f
:103f44006d0f0000ff0f0000dc0e00006d0f00007d
:103f5400ff0f0000dc0e00006d0f0000ff0f0000db
:103f6400dc0e00006d0f0000ff0f0000dc0e0000ef
:103f74006d0f0000ff0f0000dc0e00006d0f00004d
:103f8400ff0f0000dc0e00006d0f0000ff0f0000ab
:103f9400dc0e00006d0f0000ff0f0000dc0e0000bf
:103fa4006d0f0000ff0f0000dc0e00006d0f00001d
:103fb400ff0f0000dc0e00006d0f0000ff0f00007b
:103fc400dc0e00006d0f0000ff0f0000dc0e00008f
:103fd4006d0f0000ff0f0000dc0e00006d0f0000ed
:103fe400ff0f0000dc0e00006d0f0000ff0f00004b
:103ff400dc0e00006d0f0000ff0f0000dc0e00005f
:104004006d0f0000ff0f0000dc0e00006d0f0000bc
:10401400ff0f0000dc0e0000fc0000008e01000019
:104024006b000000fc0000008e0100006b0000002b
:10403400fc0000008e0100006b000000fc0000008a
:104044008e0100006b000000fc0000008e010000e7
:104054006b000000fc0000008e0100006b000000fb
:10406400fc0000008e0100006b000000fc0000005a
:104074008e0100006b000000fc0000008e010000b7
:104084006b000000fc0000008e0100006b000000cb
:10409400fc0000008e0100006b000000fc0000002a
:1040a4008e0100006b000000fc0000008e01000087
:1040b4006b000000fc0000008e0100006b0000009b
:1040c400fc0000008e0100006b000000fc000000fa
:1040d4008e0100006b000000fc0000008e01000057
:1040e4006b000000fc0000008e0100006b0000006b
:1040f400fc0000008e0100006b000000fc000000ca
:104104008e0100006b000000fc0000008e01000026
:104114006b000000fc0000008e0100006b0000003a
:10412400fc0000008e0100006b000000fc00000099
:104134008e0100006b000000fc0000008e010000f6
:104144006b000000fc0000008e0100006b0000000a
:10415400fc0000008e0100006b000000fc00000069
:104164008e0100006b000000fc0000008e010000c6
:104174006b000000fc0000008e0100006b000000da
:10418400fc0000008e0100006b000000fc00000039
:104194008e0100006b000000fc0000008e01000096
:1041a4006b000000fc0000008e0100006b000000aa
:1041b400fc0000008e0100006b000000fc00000009
:1041c4008e0100006b000000fc0000008e01000066
:1041d4006b000000fc0000008e0100006b0000007a
:1041e400fc0000008e0100006b000000fc000000d9
:1041f4008e0100006b0000006d0f0000ff0f000037
:10420400dc0e00006d0f0000ff0f0000dc0e00004c
:104214006d0f0000ff0f0000dc0e00006d0f0000aa
:10422400ff0f0000dc0e00006d0f0000ff0f000008
:10423400dc0e00006d0f0000ff0f0000dc0e00001c
:104244006d0f0000ff0f0000dc0e00006d0f00007a
:10425400ff0f0000dc0e00006d0f0000ff0f0000d8
:10426400dc0e00006d0f0000ff0f0000dc0e0000ec
:104274006d0f0000ff0f0000dc0e00006d0f00004a
:10428400ff0f0000dc0e00006d0f0000ff0f0000a8
:10429400dc0e00006d0f0000ff0f0000dc0e0000bc
:1042a4006d0f0000ff0f0000dc0e00006d0f00001a
:1042b400ff0f0000dc0e00006d0f0000ff0f000078
:1042c400dc0e00006d0f0000ff0f0000dc0e00008c
:1042d4006d0f0000ff0f0000dc0e00006d0f0000ea
:1042e400ff0f0000dc0e00006d0f0000ff0f000048
:1042f400dc0e00006d0f0000ff0f0000dc0e00005c
:104304006d0f0000ff0f0000dc0e00006d0f0000b9
:10431400ff0f0000dc0e00006d0f0000ff0f000017
:10432400dc0e00006d0f0000ff0f0000dc0e00002b
:104334006d0f0000ff0f0000dc0e00006d0f000089
:10434400ff0f0000dc0e00006d0f0000ff0f0000e7
:10435400dc0e00006d0f0000ff0f0000dc0e0000fb
:104364006d0f0000ff0f0000dc0e00006d0f000059
:10437400ff0f0000dc0e00006d0f0000ff0f0000b7
:10438400dc0e00006d0f0000ff0f0000dc0e0000cb
:104394006d0f0000ff0f0000dc0e00006d0f000029
:1043a400ff0f0000dc0e00006d0f0000ff0f000087
:1043b400dc0e00006d0f0000ff0f0000dc0e00009b
:1043c4006d0f0000ff0f0000dc0e00006d0f0000f9
:1043d400ff0f0000dc0e0000fc0000004461000040
:1043e400746500002d3e000025750000202d00009e
:1043f4002d2000004d650000732d00003e250000b7
:104404007520000059650000617200002d3e000017
:104414002575000020440000696100005365000018
:104424006d6100006e6100002d3e000025750000e6
:104434000a0d0000004800006f720000612d0000aa
:104444003e250000752000002d2d0000204d0000a9
:10445400696e0000757400006f2d00003e25000099
:104464007520000053650000677500006e6400004d
:104474006f2d00003e250000752000000a0d00008d
:044484000000000034
:020000040000fa
:104488000000fa004c02070000cdb3007a020700d2
:104498000080fa00000006000400fa00004f7800cf
:1044a8000e00e800014878000e80e8000248780015
:1044b8000e80e800104078008080fb00d0cc2c00f3
:1044c8000008b8004308de00004078000080fb00c8
:1044d8004400dd00804178000e80e800104078003c
:1044e8000081fb00d0cc2c000010b8004308de008f
:1044f8006a00b90000007800000051000040780010
:1045080080c071000e80e800014878000e00e800c5
:10451800104078008080fb00d0cc2c000008b80048
:104528004308de00004078000080fb004400dd0006
:10453800804178000e00e800104078000081fb0000
:10454800d0cc2c000010b8004308de006a00b90087
:1045580000007800000051000040780080c0710021
:104568000e00e800014878009e80fb00d0cc2c00ab
:104578000008b8004308de00004078000080fb0017
:104588004400dd00804178001e81fb00d0cc2c0067
:104598000010b8004308de006a00b9000000780087
:1045a800000051000040780000c07100004f780002
:1045b8000040eb00300207000e80e8001040780051
:1045c8002d0207000e00e800104078002a020700bc
:1045d8001e40780028020700090207000080fa0040
:1045e800000006000400fa00004f78000e00e80002
:1045f800014878000e80e800024878006300470010
:104608000348780063004700104078008080fb0072
:10461800d0cc2c000008b8004308de000040780029
:104628000080fb004400dd00804178006300470003
:10463800104078000081fb00d0cc2c000010b8009e
:104648004308de006a00b90000007800000051004d
:104658000040780080c0710063004700014878007e
:104668009e80fb00d0cc2c000008b8004308de0078
:10467800004078000080fb004400dd0080417800a5
:104688001e81fb00d0cc2c000010b8004308de00cf
:104698006a00b9000000780000005100004078006e
:1046a80000c07100004f78000e00e800104078004c
:1046b8008080fb00d0cc2c000008b8004308de0046
:1046c800004078000080fb004400dd008041780055
:1046d8000e00e800104078000081fb00d0cc2c00d0
:1046e8000010b8004308de006a00b9000000780036
:1046f800000051000040780080c071000e00e80002
:10470800014878000e80e800104078008080fb00a7
:10471800d0cc2c000008b8004308de000040780028
:104728000080fb004400dd00804178000e80e80036
:10473800104078000081fb00d0cc2c000010b8009d
:104748004308de006a00b90000007800000051004c
:104758000040780080c071000e80e80001487800b1
:104768009501070000cdb300c301070030c0b300b6
:10477800c10107006300470010407800be01070030
:104788001e407800bc0107000e00e80010407800c9
:10479800b90107000e80e80010407800b601070054
:1047a800970107000080fa00000006000600fa00e2
:1047b800000f78000e80e8000108780064004700c8
:1047c800020878007c01070000cdb300aa010700a9
:1047d8000040eb00a80107008001070010cdb300de
:1047e800a50107008040eb00640047001000780036
:1047f800ad0107008040eb000e80e8001000780053
:10480800a901070011c0b3001e007800a601070027
:104818007b01070064004700100078001040780012
:104828000080fb004400de00004078006a00b90008
:10483800000078008040780064004700100078008d
:10484800104078006f40600000c04000e40047005e
:1048580091007800804878000e80e8001000780009
:10486800104078000080fb004400de000040780023
:104878006a00b90000007800804078000e80e800e7
:1048880010007800104078006f40600000c04000c1
:104898008e80e80091007800804878001e0078003b
:1048a800104078000080fb004400de0000407800e3
:1048b8006a00b90000007800804078001e00780087
:1048c800104078006f40600000c040009e007800f3
:1048d800804878000080fa00000006000800fa000e
:1048e800000f78000e80e800010878006400470097
:1048f8000208780066004700030878002e010700c8
:1049080000cdb3005c01070030c0b3005a010700b6
:104918003201070010cdb300570107008040eb00bb
:1049280066004700100078005f0107008040eb0038
:104938001e0078005c0107008040eb000e80e80054
:10494800100078005801070011c0b3006400470048
:10495800100078005401070029010700660047008d
:1049680010007800104078000080fb004400de0052
:10497800004078006a00b9000000780080407800a4
:104988006600470010007800104078006f40600013
:1049980000c04000e6004700910078008048780099
:1049a8001e007800104078000080fb004400de0004
:1049b800004078006a00b900000078008040780064
:1049c8001e007800104078006f40600000c0400072
:1049d8009e007800804878000e80e800100078007b
:1049e800104078000080fb004400de0000407800a2
:1049f8006a00b90000007800804078000e80e80066
:104a080010007800104078006f40600000c040003f
:104a18008e80e800910078008048780064004700a4
:104a280010007800104078000080fb004400de0091
:104a3800004078006a00b9000000780080407800e3
:104a48006400470010007800104078006f40600054
:104a580000c04000e40047009100780080487800da
:104a68000080fa00000006000400fa00000f780039
:104a78000e80e8000108780000582200010020009c
:104a88003a01070040062000a50007007cfe070049
:104a98000041eb00a1c0b30060c1b3007efe070077
:104aa80023c0b30072c1b30021c0b300c0c1b300ba
:104ab800ccfe0700c380200092802000a180200047
:104ac800b080200085ff07008280200071802000d0
:104ad8006080200035ff07000cc8bf008081fb0004
:104ae80009c8bf000081fb000ac8bf008080fb0026
:104af8000bc8bf000080fb00831f7800821f78006e
:104b0800811f7800801f7800001f2a00801f78000e
:104b18008df10700ea87570008c8bf000081fb0035
:104b280007c8bf008080fb0006c8bf000080fb00ec
:104b3800821f7800811f7800801f7800d0212a000a
:104b4800801f780080f10700e887570000b4240030
:104b5800c104200085010700d6ff37000000fa00d5
:104b6800950007008040eb00e0c4b300ad000700eb
:104b780000c8bf00c0000700a100070000c8bf00b0
:104b88000040e80000e8b70000242400f1002000fd
:104b9800760107000080fa00000006000000fa0015
:104ba8000168ef0035003700830007008040eb0004
:104bb80060c4b3009b00070001c8bf008080fb00f1
:104bc800e08020000080400010407800aa00070024
:104bd8000268ef0022003700800007008040eb00e9
:104be800c0c4b3008f00070002c8bf008080fb006c
:104bf800e080200000804000104078009e00070000
:104c08000368ef0010003700740007008040eb00d5
:104c180000c4b3008300070003c8bf008080fb0006
:104c2800e0802000008040001040780092000700db
:104c380000242400f10020004c01070003c8bf0035
:104c48000040e80003e8b70003c8bf00e94f500080
:104c5800edff360002c8bf000040e80002e8b700d8
:104c680002c8bf00e94f5000dbff360064000700b0
:104c780001c8bf000040e80001e8b70001c8bf0054
:104c8800e94f5000c8ff36000080fa000000060017
:104c98000000fa000068ef0000c8bf000080fb00b9
:104ca80080004000e0e22900008040001000780009
:104cb8004800de00004078006f40600004e8b7005c
:104cc80000c8bf000080fb0080004000e0e229002f
:104cd80000804000100078000040780005e8b70028
:104ce800350007008040eb0000ccb3004d00070002
:104cf80004c8bf006000070005c8bf005e000700c9
:104d08003f000700006a2800110020001701070073
:104d180000c8bf000040e80000e8b700deff370029
:104d28000a00fa00889fbe00e80047008008780063
:104d380090952d0001402300008fbe0068004700b9
:104d4800100078008000eb000001be0080382100d0
:104d580001002000a7ee07008fee07000004be0048
:104d68000268290083a924001e00be009fef0700e7
:104d78000001be000800be00aeee070002002000e1
:104d880003002400abee0700640147000089be0061
:104d9800640047001000be0064ee07000040780081
:104da8000080fb002010880007e2a8004f04be0026
:104db8000080fa00000006000000fa000602a800c1
:104dc8000000000030108000610060000000e0007a
:104dd800fcff3a000080fa00000006000000fa001c
:104de8000622a80000000000301080006200600069
:104df8000000e000fcff3a000080fa000000060016
:104e08000000fa000642a8000000000030108000f0
:104e1800640060000000e000fcff3a000080fa0037
:104e2800000006000200fa00004f78000e00e800bb
:104e3800014878009e80fb00e00f20008080600021
:104e48000e00e800104078000080fb006100600060
:104e58000100700010108800000000004110800060
:104e680000002400008060000000e000fbff3a0022
:104e78000080fa00000006000200fa00004f7800e7
:104e88001e80fb0010108800000000004110800008
:104e980000002400008060000000e000fbff3a00f2
:104ea8000080fa00000006000400fa00000f7800f5
:104eb8000e80e800014878000682a9000662a80072
:104ec8000e80e800104078000004e00011003a006d
:104ed8000000000030108000680060000000e00062
:104ee800fcff3a0000108000004078009e00780027
:104ef8008048780006a2a9000682a80000000000e9
:104f080030108000700060000000e000fcff3a00f4
:104f1800140037000e80e80010407800e14f500080
:104f280010003a00000000003010800068006000a7
:104f38000000e000fcff3a0000108000004078000c
:104f48009e0078008048780006a2a8000682a80083
:104f58000000000030108000700060000000e000d9
:104f6800fcff3a000080fa00000006000400fa0086
:104f7800008fbe004016800000b0a10040168800d7
:104f880051368000f00f2e00808060000030200035
:104f980001007000503688004016800000a0a00074
:104fa800401688002135800000fe2f000080600038
:104fb800a000b3002035880021e2a9002002a90042
:104fc8000111800090ff2f00008060000011880010
:104fd8002062a9001e01be00404b2c0041002000a9
:104fe80004ee0700000078000000e9004011880086
:104ff8002342a80011118000f0f32f000080600008
:10500800101188009560a8008560a90041058000fe
:1050180000002700010070004005880021e2a80078
:105028000080fa00000006000200fa00004f780035
:1050380000000000111180000020200000806000a6
:105048000000e000fbff3a001e00fb002011880072
:105058000080fa00000006000200fa00000f780045
:10506800040037001e007800104078001e0fe8008a
:10507800edff07001e007800104078000004e000f3
:0c508800f8ff3a000080fa00000006006b
:020000040000fa
:10509400000800000e000000000000000e080000e0
:1050a4000a00000002000000c0f9a400b0999200b8
:1050b40082f8800090000000180800004200000000
:1050c400020000001c081e00081e08000100030066
:1050d4000000000000000000000000000000ee00de
:1050e400100000000000000000c40c00c208000012
:1050f40000000000000000000000000000000000ac
:10510400000000000000000000000000000000009b
:105114000000000000000000000000005a08000029
:105124001c00000002000000286e69006c290000c9
:1051340068076c00094c83006a907400a07ac00070
:1051440000806800880084006c82000081000000f8
:10515400760800000200000000000000780800004b
:105164000200000002000000010000000000000036
:020000040000fa
:10517400f03fb1000180b10006003500ee030900e4
:1051840000000000403fb1000180b100fbff3d0082
:105194001000b000203fb00002003500008009007c
:0851a4000000000000000600fd
:020000040000fa
:0200000401f009
:04000000ffffff00ff
:020000040000fa
:0200000401f009
:04000800ffffff00f7
:020000040000fa
:0200000401f009
:04000c00820000006e
:020000040000fa
:0200000401f009
:04001000a500000047
:020000040000fa
:0200000401f009
:040014005f00000089
:020000040000fa
:0200000401f009
:04001800f7000000ed
:020000040000fa
:0200000401f009
:04001c00dfff000002
:00000001FF
